:041000000BEF08F0FA
:101008003982FACF09F0FBCF0AF017ED08F030EF7C
:101018000DF00031323346343536453738394441DE
:101028003042432000000600E9CF0BF0EACF0CF075
:10103800E1CF0DF0E2CF0EF0D9CF0FF0DACF10F0FC
:10104800F3CF11F0F4CF12F0F6CF13F0F7CF14F07E
:10105800F8CF15F0F5CF16F0F2A485D03828386E01
:101068003B0E386410D0000E386E3428346E3B0EB8
:10107800346409D0000E346E3028306E170E306498
:1010880002D0000E306E30C001F0026A000E046E0D
:101098000A0E036E74EC0BF001501A6E1A500A0D0A
:1010A800F35000083024176E34C001F0026A000EB5
:1010B800046E0A0E036E74EC0BF001501B6E1B508D
:1010C8000A0DF35000083424186E38C001F0026A83
:1010D800000E046E0A0E036E74EC0BF001501C6EC9
:1010E8001C500A0DF35000083824196E800E9BEC32
:1010F8000CF0740E2AEC0BF0690E2AEC0BF06D0E56
:101108002AEC0BF0650E2AEC0BF0200E2AEC0BF003
:101118003D0E2AEC0BF0200E2AEC0BF01A50B6EC20
:101128000BF02AEC0BF01750B6EC0BF02AEC0BF096
:101138003A0E2AEC0BF01B50B6EC0BF02AEC0BF035
:101148001850B6EC0BF02AEC0BF03A0E2AEC0BF028
:101158001C50B6EC0BF02AEC0BF01950B6EC0BF067
:101168002AEC0BF0F29416C0F5FF15C0F8FF14C076
:10117800F7FF13C0F6FF12C0F4FF11C0F3FF10C051
:10118800DAFF0FC0D9FF0EC0E2FF0DC0E1FF0CC0AF
:10119800EAFF0BC0E9FF0AC0FBFF09C0FAFF39925A
:1011A800110020EE9FF010EEB4F0140EDBCFE3FF39
:1011B800E806FCE2800E63EC0CF0000E0001D06F34
:1011C800130E0001D06501D013D00001D051010DDC
:1011D800B40EF324D96E000EF420DA6EDF5000014D
:1011E800C96F0001C951E0EC0AF00001D02BE8D723
:1011F800C00E63EC0CF04DEC0DF00001D16F000156
:10120800D151E0EC0AF00001D1512AEC0CF00001B8
:10121800CA6F4DEC0DF00001D16F0001D151E0EC27
:101228000AF00001D1512AEC0CF00001CB6F4DEC13
:101238000DF00001D16F0001D151E0EC0AF000017E
:10124800D1512AEC0CF00001CC6F4DEC0DF00001EF
:10125800D16F0001D151E0EC0AF00001D1512AEC24
:101268000CF00001CD6F4DEC0DF00001D16F0001C5
:10127800D151E0EC0AF00001D1512AEC0CF0000148
:10128800CE6F4DEC0DF00001D16F0001D151E0ECB3
:101298000AF00001D1512AEC0CF00001CF6F0001D7
:1012A800CA510A0DF3500001CB25306E0001CC5114
:1012B8000A0DF3500001CD25346E0001CE510A0D00
:1012C800F3500001CF25386E010E1E6EF40E1D6E10
:1012D8006AEC0DF0010E63EC0CF0120020EE8AF0BF
:1012E80010EEB4F0140EDBCFE3FFE806FCE2800E4C
:1012F80063EC0CF0000E0001CE6F130E0001CE65FA
:1013080001D013D00001CE51010DB40EF324D96ED3
:10131800000EF420DA6EDF500001C96F0001C951D8
:10132800E0EC0AF00001CE2BE8D7C00E63EC0CF01D
:101338004DEC0DF00001CF6F0001CF51E0EC0AF049
:101348000001CF512AEC0CF00001CA6F4DEC0DF0F2
:101358000001CF6F0001CF51E0EC0AF00001CF513E
:101368002AEC0CF00001CB6F4DEC0DF00001CF6FB3
:101378000001CF51E0EC0AF00001CF512AEC0CF04B
:101388000001CC6F4DEC0DF00001CF6F0001CF5183
:10139800E0EC0AF00001CF512AEC0CF00001CD6F0F
:1013A8000001CA510A0DF3500001CB25336E00012C
:1013B800CC510A0DF3500001CD25376E010E1E6E7B
:1013C800F40E1D6E6AEC0DF0010E63EC0CF01200C9
:1013D80020EE75F010EEB4F0140EDBCFE3FFE80654
:1013E800FCE2800E63EC0CF0000E0001CE6F130ED1
:1013F8000001CE6501D013D00001CE51010DB40E0D
:10140800F324D96E000EF420DA6EDF500001C96FA4
:101418000001C951E0EC0AF00001CE2BE8D7C00E5C
:1014280063EC0CF04DEC0DF00001CF6F0001CF51D3
:10143800E0EC0AF00001CF512AEC0CF00001CA6F71
:101448004DEC0DF00001CF6F0001CF51E0EC0AF038
:101458000001CF512AEC0CF00001CB6F4DEC0DF0E0
:101468000001CF6F0001CF51E0EC0AF00001CF512D
:101478002AEC0CF00001CC6F4DEC0DF00001CF6FA1
:101488000001CF51E0EC0AF00001CF512AEC0CF03A
:101498000001CD6F0001CA510A0DF3500001CB25A0
:1014A800326E0001CC510A0DF3500001CD25366E85
:1014B800010E1E6EF40E1D6E6AEC0DF0010E63EC4B
:1014C8000CF0120020EE60F010EEB4F0140EDBCF3A
:1014D800E3FFE806FCE2800E63EC0CF0000E00016E
:1014E800CE6F130E0001CE6501D013D00001CE518E
:1014F800010DB40EF324D96E000EF420DA6EDF501D
:101508000001C96F0001C951E0EC0AF00001CE2BBF
:10151800E8D7C00E63EC0CF04DEC0DF00001CF6F76
:101528000001CF51E0EC0AF00001CF512AEC0CF099
:101538000001CA6F4DEC0DF00001CF6F0001CF51D3
:10154800E0EC0AF00001CF512AEC0CF00001CB6F5F
:101558004DEC0DF00001CF6F0001CF51E0EC0AF027
:101568000001CF512AEC0CF00001CC6F4DEC0DF0CE
:101578000001CF6F0001CF51E0EC0AF00001CF511C
:101588002AEC0CF00001CD6F0001CA510A0DF3508E
:101598000001CB25316E0001CC510A0DF35000013A
:1015A800CD25356E010E1E6EF40E1D6E6AEC0DF023
:1015B800010E63EC0CF012001F6E838C3F0E1E6E42
:1015C800550EE82EFED71E2EFCD700F01FC020F0C7
:1015D80020380F0B206E20500F0B836E7D0E1E6E71
:1015E800AC0EE82EFED71E2EFCD7838C7D0E1E6E09
:1015F800AC0EE82EFED71E2EFCD784EC0DF07D0E27
:101608001E6EAC0EE82EFED71E2EFCD71FC020F093
:1016180020500F0B836E7D0E1E6EAC0EE82EFED78B
:101628001E2EFCD7838C9C0E1E6ED70EE82EFED77E
:101638001E2EFCD700F084EC0DF09C0E1E6ED70E0B
:10164800E82EFED71E2EFCD700F01200036E838C06
:101658003F0E026E550EE82EFED7022EFCD700F084
:1016680003C004F004380F0B046E04500F0B836E94
:101678007D0E026EAC0EE82EFED7022EFCD7838CB0
:101688007D0E026EAC0EE82EFED7022EFCD795EC2E
:101698000DF07D0E026EAC0EE82EFED7022EFCD7A2
:1016A80003C004F004500F0B836E7D0E026EAC0E67
:1016B800E82EFED7022EFCD7838C9C0E026ED70E26
:1016C800E82EFED7022EFCD700F095EC0DF09C0E0C
:1016D800026ED70EE82EFED7022EFCD700F01200BD
:1016E800000E066E04AE06D0036C041ED8B0042AA1
:1016F800010E066E02AE06D0016C021ED8B0022A98
:10170800010E061A000E086E000E076E0350041034
:10171800D8B41CD0010E056E04D0D8900336043618
:10172800052A04AEFAD7D890073608360350015C6C
:1017380004500258D8A005D00350015E0450025A44
:101748000780D89004320332052EEDD70650D8B45E
:1017580004D0076C081ED8B0082A07C001F008C0DA
:1017680002F01200016E17D0300E13D0310E11D0D6
:10177800320E0FD0330E0DD0340E0BD0350E09D0EB
:10178800360E07D0370E05D0380E03D0390E01D0EB
:101798003F0E026E20D00150000AD8B4E5D7010AE6
:1017A800D8B4E4D7030AD8B4E3D7010AD8B4E2D747
:1017B800070AD8B4E1D7010AD8B4E0D7030AD8B4E5
:1017C800DFD7010AD8B4DED70F0AD8B4DDD7010AAB
:1017D800D8B4DCD7DDD702501200000E956E000E8B
:1017E800836E8398839C839A000E236E000E226E6C
:1017F80023BE06D023500FE1640E225CD8B00BD074
:101808009C0E216ED70EE82EFED7212EFCD700F0B5
:10181800224A232AEDD7330E63EC0CF0320E63EC28
:101828000CF0280E63EC0CF00E0E63EC0CF0060EB8
:1018380063EC0CF0010E63EC0CF09C0E216ED70EDD
:10184800E82EFED7212EFCD700F012001D6E15D011
:10185800010E11D0020E0FD0030E0DD0040E0BD0C6
:10186800050E09D0060E07D0070E05D0080E03D0C6
:10187800090E01D0000E1E6E20D01D50300AD8B4BB
:10188800F9D7010AD8B4E4D7030AD8B4E3D7010AD0
:10189800D8B4E2D7070AD8B4E1D7010AD8B4E0D758
:1018A800030AD8B4DFD7010AD8B4DED70F0AD8B4F0
:1018B800DDD7010AD8B4DCD7DDD71E5012001F6E61
:1018C800839C3F0E1E6E550EE82EFED71E2EFCD7AB
:1018D80000F01FC020F020380F0B206E20500F0B97
:1018E800836E7D0E1E6EAC0EE82EFED71E2EFCD724
:1018F80084EC0DF07D0E1E6EAC0EE82EFED71E2E6B
:10190800FCD71FC020F020500F0B836E7D0E1E6E7B
:10191800AC0EE82EFED71E2EFCD784EC0DF07D0E03
:101928001E6EAC0EE82EFED71E2EFCD71200036EDC
:10193800839C3F0E026E550EE82EFED7022EFCD772
:1019480000F003C004F004380F0B046E04500F0BB2
:10195800836E7D0E026EAC0EE82EFED7022EFCD7EB
:1019680095EC0DF07D0E026EAC0EE82EFED7022E21
:10197800FCD703C004F004500F0B836E7D0E026E7B
:10198800AC0EE82EFED7022EFCD795EC0DF07D0E9E
:10199800026EAC0EE82EFED7022EFCD712000F0EF8
:1019A800C16E070EB46EF1EC0BF0D5EC08F066ECE6
:1019B8000AF0ECEC09F072EC09F0A6EC0DF0000E60
:1019C800926E31503018D8A406D035503418D8A4A7
:1019D80002D0030E15D032503018D8A406D0365095
:1019E8003418D8A402D0050E0BD033503018D8A420
:1019F80006D037503418D8A402D0090E01D0000EF2
:101A0800806EDFD75375626A65637420412054691C
:101A18006D652068686D6D3A005375626A65637418
:101A280020422054696D652068686D6D3A005375D1
:101A3800626A65637420432054696D652068686D27
:101A48006D3A005365742074696D652068686D6D22
:101A580073733A202020200000EE30F0090EEE6A61
:101A6800E806FDE10C0EF66E1A0EF76E000EF86E23
:101A780000EE60F010EE54F00900F5CFEEFFE550EF
:101A8800E150FAE139903992000EF86E0001D3EF77
:101A98000CF01B0EF66E100EF76E20EE1DF0110EF8
:101AA8000900F5CFDEFFE806FBE281AAFED78150E8
:101AB8000F0B2F6E81BAFED72F50010D1D0EF32488
:101AC800D96E000EF420DA6EDF5012001D501E1081
:101AD800D8B41200000E216E000E206E0AD0100E2F
:101AE8001F6E940EE82EFED71F2EFCD700D0204A7A
:101AF800212A1D50205C1E502158D8B01200EFD763
:101B080083887D0E1D6EAC0EE82EFED71D2EFCD7E9
:101B180083987D0E1D6EAC0EE82EFED71D2EFCD7C9
:101B2800120083887D0E016EAC0EE82EFED7012EC2
:101B3800FCD783987D0E016EAC0EE82EFED7012EE1
:101B4800FCD71200D08EF28E070ED56E840EF16E81
:101B5800480ED76EE50ED66ED58EF28AF294120034
:020000040020DA
:08000000FFFFFFFFFFFFFFFF00
:020000040030CA
:0E00000000051F1FFF8385FF0FC00FE00F409C
:00000001FF
