:041000000BEF08F0FA
:101008004382FACF09F0FBCF0AF017ED08F0D5EFCD
:101018000CF00031323346343536453738394441DF
:101028003042432000000600E9CF0BF0EACF0CF075
:10103800E1CF0DF0E2CF0EF0D9CF0FF0DACF10F0FC
:10104800F3CF11F0F4CF12F0F6CF13F0F7CF14F07E
:10105800F8CF15F0F5CF16F0F2A485D04228426EED
:101068003B0E426410D0000E426E3E283E6E3B0E90
:101078003E6409D0000E3E6E3A283A6E170E3A6466
:1010880002D0000E3A6E3AC001F0026A000E046EF9
:101098000A0E036E53EC0CF001501A6E1A500A0D2A
:1010A800F35000083A24176E3EC001F0026A000EA1
:1010B800046E0A0E036E53EC0CF001501B6E1B50AD
:1010C8000A0DF35000083E24186E42C001F0026A6F
:1010D800000E046E0A0E036E53EC0CF001501C6EE9
:1010E8001C500A0DF35000084224196E800EC3EC00
:1010F8000DF0540E09EC0CF0690E09EC0CF06D0EB5
:1011080009EC0CF0650E09EC0CF0200E09EC0CF063
:101118003D0E09EC0CF0200E09EC0CF01A504FECC7
:101128000DF009EC0CF017504FEC0DF009EC0CF039
:101138003A0E09EC0CF01B504FEC0DF009EC0CF0DA
:1011480018504FEC0DF009EC0CF03A0E09EC0CF0CD
:101158001C504FEC0DF009EC0CF019504FEC0DF051
:1011680009EC0CF0F29416C0F5FF15C0F8FF14C096
:10117800F7FF13C0F6FF12C0F4FF11C0F3FF10C051
:10118800DAFF0FC0D9FF0EC0E2FF0DC0E1FF0CC0AF
:10119800EAFF0BC0E9FF0AC0FBFF09C0FAFF439250
:1011A800110020EE9FF010EEDCF0140EDBCFE3FF11
:1011B800E806FCE2800E12EC0DF0000E0001F86F5C
:1011C800130E0001F86501D013D00001F851010D8C
:1011D800DC0EF324D96E000EF420DA6EDF50000125
:1011E800F16F0001F151BAEC0BF00001F82BE8D7D0
:1011F800C00E12EC0DF057EC0EF00001F96F000173
:10120800F951BAEC0BF00001F9518AEC0DF000012C
:10121800F26F57EC0EF00001F96F0001F951BAECCA
:101228000BF00001F9518AEC0DF00001F36F57EC57
:101238000EF00001F96F0001F951BAEC0BF0000152
:10124800F9518AEC0DF00001F46F57EC0EF0000133
:10125800F96F0001F951BAEC0BF00001F9518AEC71
:101268000DF00001F56F57EC0EF00001F96F000169
:10127800F951BAEC0BF00001F9518AEC0DF00001BC
:10128800F66F57EC0EF00001F96F0001F951BAEC56
:101298000BF00001F9518AEC0DF00001F76F000125
:1012A800F2510A0DF3500001F3253A6E0001F45192
:1012B8000A0DF3500001F5253E6E0001F6510A0DA6
:1012C800F3500001F725426E010E1E6EF40E1D6EDE
:1012D80076EC0EF0010E12EC0DF0120020EEB4F0D8
:1012E80010EECCF0140EDBCFE3FFE806FCE2800E34
:1012F80012EC0DF0000E0001F76F130E0001F765F8
:1013080001D013D00001F751010DCC0EF324D96E92
:10131800000EF420DA6EDF500001F66F0001F6517E
:10132800BAEC0BF00001F72BE8D7020E806E030E23
:101338001E6EE80E1D6E76EC0EF0040E806E030E27
:101348001E6EE80E1D6E76EC0EF0080E806E030E13
:101358001E6EE80E1D6E76EC0EF00F0E806E030EFC
:101368001E6EE80E1D6E76EC0EF0000E806E000EFE
:10137800356E000E346E000E376E000E366E000E9F
:10138800396E000E386E20EE1FF010EEE1F0140EEC
:10139800DBCFE3FFE806FCE2800E12EC0DF0000E56
:1013A8000001F76F130E0001F76501D0120000016C
:1013B800F751010DE10EF324D96E000EF420DA6E18
:1013C800DF500001F66F0001F651BAEC0BF0000196
:1013D800F72BE8D720EE8AF010EEDCF0140EDBCF06
:1013E800E3FFE806FCE2080E806E800E12EC0DF0BA
:1013F800000E0001F66F130E0001F66501D013D040
:101408000001F651010DDC0EF324D96E000EF42014
:10141800DA6EDF500001F16F0001F151BAEC0BF008
:101428000001F62BE8D7C00E12EC0DF057EC0EF0C9
:101438000001F76F0001F751BAEC0BF00001F7510A
:101448008AEC0DF00001F26F57EC0EF00001F76F17
:101458000001F751BAEC0BF00001F7518AEC0DF0DE
:101468000001F36F57EC0EF00001F76F0001F75120
:10147800BAEC0BF00001F7518AEC0DF00001F46FA3
:1014880057EC0EF00001F76F0001F751BAEC0BF0C2
:101498000001F7518AEC0DF00001F56F0001F251DF
:1014A8000A0DF3500001F3253D6E0001F4510A0DB9
:1014B800F3500001F525416E010E1E6EF40E1D6EEF
:1014C80076EC0EF0010E12EC0DF0120020EE75F025
:1014D80010EEDCF0140EDBCFE3FFE806FCE2040EAE
:1014E800806E800E12EC0DF0000E0001F66F130EE8
:1014F8000001F66501D013D00001F651010DDC0E94
:10150800F324D96E000EF420DA6EDF500001F16F7B
:101518000001F151BAEC0BF00001F62BE8D7C00E30
:1015280012EC0DF057EC0EF00001F76F0001F751C7
:10153800BAEC0BF00001F7518AEC0DF00001F26FE4
:1015480057EC0EF00001F76F0001F751BAEC0BF001
:101558000001F7518AEC0DF00001F36F57EC0EF023
:101568000001F76F0001F751BAEC0BF00001F751D9
:101578008AEC0DF00001F46F57EC0EF00001F76FE4
:101588000001F751BAEC0BF00001F7518AEC0DF0AD
:101598000001F56F0001F2510A0DF3500001F32527
:1015A8003C6E0001F4510A0DF3500001F525406E20
:1015B800010E1E6EF40E1D6E76EC0EF0010E12EC8E
:1015C8000DF0120020EE60F010EEDCF0140EDBCF10
:1015D800E3FFE806FCE2020E806E800E12EC0DF0CE
:1015E800000E0001F66F130E0001F66501D013D04E
:1015F8000001F651010DDC0EF324D96E000EF42023
:10160800DA6EDF500001F16F0001F151BAEC0BF016
:101618000001F62BE8D7C00E12EC0DF057EC0EF0D7
:101628000001F76F0001F751BAEC0BF00001F75118
:101638008AEC0DF00001F26F57EC0EF00001F76F25
:101648000001F751BAEC0BF00001F7518AEC0DF0EC
:101658000001F36F57EC0EF00001F76F0001F7512E
:10166800BAEC0BF00001F7518AEC0DF00001F46FB1
:1016780057EC0EF00001F76F0001F751BAEC0BF0D0
:101688000001F7518AEC0DF00001F56F0001F251ED
:101698000A0DF3500001F3253B6E0001F4510A0DC9
:1016A800F3500001F5253F6E010E1E6EF40E1D6EFF
:1016B80076EC0EF0010E12EC0DF012000F0EC16E5A
:1016C800070EB46E95EC0CF0300E926E30EC0EF006
:1016D80072EC09F0D5EC08F0E6EC0AF06AEC0AF0D6
:1016E800EEEC09F0B7EC0EF03B503A18D8A411D044
:1016F8003F503E18D8A40DD034503510D8A409D086
:10170800030E806E80BAF0D7000E356E010E346E6F
:10171800EBD73C503A18D8A411D040503E18D8A462
:101728000DD036503710D8A409D0050E806E80BA77
:10173800DBD7000E376E010E366ED6D73D503A18FD
:10174800D8A411D041503E18D8A40DD03850391023
:10175800D8A409D0090E806E80BAC6D7000E396E9B
:10176800010E386EC1D7000E806EBED70001C96F5A
:10177800838C3F0E1E6E550EE82EFED71E2EFCD70C
:1017880000F0C9C0CAF00001CA390F0B0001CA6FC6
:101798000001CA510F0B836E7D0E1E6EAC0EE82E33
:1017A800FED71E2EFCD7838C7D0E1E6EAC0EE82E47
:1017B800FED71E2EFCD795EC0EF07D0E1E6EAC0EDD
:1017C800E82EFED71E2EFCD7C9C0CAF00001CA51A8
:1017D8000F0B836E7D0E1E6EAC0EE82EFED71E2EEE
:1017E800FCD7838C9C0E1E6ED70EE82EFED71E2EBD
:1017F800FCD700F095EC0EF09C0E1E6ED70EE82E6E
:10180800FED71E2EFCD700F01200036E838C3F0E0D
:10181800026E550EE82EFED7022EFCD700F003C04C
:1018280004F004380F0B046E04500F0B836E7D0E0A
:10183800026EAC0EE82EFED7022EFCD7838C7D0EEE
:10184800026EAC0EE82EFED7022EFCD7A6EC0EF0E8
:101858007D0E026EAC0EE82EFED7022EFCD703C01A
:1018680004F004500F0B836E7D0E026EAC0EE82E52
:10187800FED7022EFCD7838C9C0E026ED70EE82E64
:10188800FED7022EFCD700F0A6EC0EF09C0E026EDE
:10189800D70EE82EFED7022EFCD700F01200000E5D
:1018A800066E04AE06D0036C041ED8B0042A010EDE
:1018B800066E02AE06D0016C021ED8B0022A010ED6
:1018C800061A000E086E000E076E03500410D8B4F6
:1018D8001CD0010E056E04D0D89003360436052AB4
:1018E80004AEFAD7D890073608360350015C045086
:1018F8000258D8A005D00350015E0450025A078050
:10190800D89004320332052EEDD70650D8B404D04F
:10191800076C081ED8B0082A07C001F008C002F0FA
:101928001200000E956E000E836E8398839C839A36
:10193800000E0001CD6F000ECC6F0001CDBF08D0A6
:101948000001CD5112E1640E0001CC5DD8B00DD07C
:101958009C0E0001CB6FD70EE82EFED7CB2FFCD7FD
:1019680000F00001CC4BCD2BE8D7330E12EC0DF074
:10197800320E12EC0DF0280E12EC0DF00E0E12ECD9
:101988000DF0060E12EC0DF0010E12EC0DF09C0E8F
:101998000001CB6FD70EE82EFED7CB2FFCD700F077
:1019A80012009F0EF66E1D0EF76E000EF86E01EE19
:1019B80000F010EE15F00900F5CFEEFFE550E1500C
:1019C800FAE1F60EF66E1B0EF76E000EF86E00EEDC
:1019D80060F010EE69F00900F5CFEEFFE550E15038
:1019E800FAE18A0EF66E1D0EF76E000EF86E00EE26
:1019F8001FF010EE15F00900F5CFEEFFE550E150AD
:101A0800FAE100EE34F00F0EEE6AE806FDE14390CD
:101A18004392000EF86E000162EF0BF00001C96FEF
:101A2800839C3F0E1E6E550EE82EFED71E2EFCD749
:101A380000F0C9C0CAF00001CA390F0B0001CA6F13
:101A48000001CA510F0B836E7D0E1E6EAC0EE82E80
:101A5800FED71E2EFCD795EC0EF07D0E1E6EAC0E3A
:101A6800E82EFED71E2EFCD7C9C0CAF00001CA5105
:101A78000F0B836E7D0E1E6EAC0EE82EFED71E2E4B
:101A8800FCD795EC0EF07D0E1E6EAC0EE82EFED740
:101A98001E2EFCD71200016E17D0300E13D0310E57
:101AA80011D0320E0FD0330E0DD0340E0BD0350EB0
:101AB80009D0360E07D0370E05D0380E03D0390EB0
:101AC80001D03F0E026E20D00150000AD8B4E5D7ED
:101AD800010AD8B4E4D7030AD8B4E3D7010AD8B4C2
:101AE800E2D7070AD8B4E1D7010AD8B4E0D7030A85
:101AF800D8B4DFD7010AD8B4DED70F0AD8B4DDD7F7
:101B0800010AD8B4DCD7DDD7025012001D6E15D0FB
:101B1800010E11D0020E0FD0030E0DD0040E0BD003
:101B2800050E09D0060E07D0070E05D0080E03D003
:101B3800090E01D0000E1E6E20D01D50300AD8B4F8
:101B4800F9D7010AD8B4E4D7030AD8B4E3D7010A0D
:101B5800D8B4E2D7070AD8B4E1D7010AD8B4E0D795
:101B6800030AD8B4DFD7010AD8B4DED70F0AD8B42D
:101B7800DDD7010AD8B4DCD7DDD71E501200036EBA
:101B8800839C3F0E026E550EE82EFED7022EFCD720
:101B980000F003C004F004380F0B046E04500F0B60
:101BA800836E7D0E026EAC0EE82EFED7022EFCD799
:101BB800A6EC0EF07D0E026EAC0EE82EFED7022EBD
:101BC800FCD703C004F004500F0B836E7D0E026E29
:101BD800AC0EE82EFED7022EFCD7A6EC0EF07D0E3A
:101BE800026EAC0EE82EFED7022EFCD712005375FB
:101BF800626A65637420412054696D652068686D68
:101C08006D3A005375626A65637420422054696DA9
:101C1800652068686D6D3A005375626A6563742063
:101C2800432054696D652068686D6D3A005365748A
:101C38002074696D652068686D6D73733A20202083
:101C4800200053797374656D20436865636B2020A9
:071C580020202020202000C5
:101C600021EE00F010EECBF0140EDBCFE3FFE80620
:101C7000FCE2800E12EC0DF0000E0001E16F130E7D
:101C80000001E16501D012000001E151010DCB0E10
:101C9000F324D96E000EF420DA6EDF500001E06FFD
:101CA0000001E051BAEC0BF00001E12BE8D71B0E6C
:101CB000F66E100EF76E20EEC9F0110E0900F5CF8A
:101CC000DEFFE806FBE281AAFED781500F0B000180
:101CD000DB6F81BAFED70001DB51010DC90EF32481
:101CE000D96E000EF420DA6EDF5012001D501E1067
:101CF000D8B41200000E0001CB6F000ECA6F0CD0DA
:101D0000100E0001C96F940EE82EFED7C92FFCD724
:101D100000D00001CA4BCB2B1D500001CA5D1E50E4
:101D20000001CB59D8B01200EBD783887D0E1D6E11
:101D3000AC0EE82EFED71D2EFCD783987D0E1D6EAF
:101D4000AC0EE82EFED71D2EFCD7120083887D0E28
:101D5000016EAC0EE82EFED7012EFCD783987D0EC7
:101D6000016EAC0EE82EFED7012EFCD71200D08EED
:101D7000F28E070ED56E840EF16E480ED76EE50E0C
:101D8000D66ED58EF28AF2941200446F6E652020D2
:101D9000202020202020202020202020202000453E
:101DA00054542056657273696F6E20312E34202092
:041DB00020202000CF
:020000040020DA
:08000000FFFFFFFFFFFFFFFF00
:020000040030CA
:0E00000000051F1FFF8385FF0FC00FE00F409C
:00000001FF
