:041000000BEF08F0FA
:101008003682FACF09F0FBCF0AF017ED08F024EF8B
:101018000CF00031323346343536453738394441DF
:101028003042432000000600E9CF0BF0EACF0CF075
:10103800E1CF0DF0E2CF0EF0D9CF0FF0DACF10F0FC
:10104800F3CF11F0F4CF12F0F6CF13F0F7CF14F07E
:10105800F8CF15F0F5CF16F0F2A485D03528356E07
:101068003B0E356410D0000E356E3328336E3B0EC0
:10107800336409D0000E336E3128316E170E316497
:1010880002D0000E316E31C001F0026A000E046E0B
:101098000A0E036E80EC0AF001501A6E1A500A0DFF
:1010A800F35000083124176E33C001F0026A000EB5
:1010B800046E0A0E036E80EC0AF001501B6E1B5082
:1010C8000A0DF35000083324186E35C001F0026A87
:1010D800000E046E0A0E036E80EC0AF001501C6EBE
:1010E8001C500A0DF35000083524196E800EA7EC29
:1010F8000BF0740E36EC0AF0690E36EC0AF06D0E41
:1011080036EC0AF0650E36EC0AF0200E36EC0AF0E2
:101118003D0E36EC0AF0200E36EC0AF01A50C2ECFE
:101128000AF036EC0AF01750C2EC0AF036EC0AF076
:101138003A0E36EC0AF01B50C2EC0AF036EC0AF014
:101148001850C2EC0AF036EC0AF03A0E36EC0AF007
:101158001C50C2EC0AF036EC0AF01950C2EC0AF046
:1011680036EC0AF0F29416C0F5FF15C0F8FF14C06B
:10117800F7FF13C0F6FF12C0F4FF11C0F3FF10C051
:10118800DAFF0FC0D9FF0EC0E2FF0DC0E1FF0CC0AF
:10119800EAFF0BC0E9FF0AC0FBFF09C0FAFF36925D
:1011A800110020EE75F010EE8AF0140EDBCFE3FF8D
:1011B800E806FCE2800E6FEC0BF0000E0001A66F53
:1011C800130E0001A66501D013D00001A651010D30
:1011D8008A0EF324D96E000EF420DA6EDF50000177
:1011E8009F6F00019F51ECEC09F00001A62BE8D796
:1011F800C00E6FEC0BF007EC0CF00001A76F0001BC
:10120800A751ECEC09F00001A75136EC0BF00001F6
:10121800A06F07EC0CF00001A76F0001A751ECECE0
:1012280009F00001A75136EC0BF00001A16F07ECA3
:101238000CF00001A76F0001A751ECEC09F00001C8
:10124800A75136EC0BF00001A26F07EC0CF000017F
:10125800A76F0001A751ECEC09F00001A75136EC8B
:101268000BF00001A36F07EC0CF00001A76F000161
:10127800A751ECEC09F00001A75136EC0BF0000186
:10128800A46F07EC0CF00001A76F0001A751ECEC6C
:1012980009F00001A75136EC0BF00001A56F000121
:1012A800A0510A0DF3500001A125316E0001A25191
:1012B8000A0DF3500001A325336E0001A4510A0D55
:1012C800F3500001A525356E010E1E6EF40E1D6E3D
:1012D80040EC0CF0010E6FEC0BF0120020EE60F009
:1012E80010EE8AF0140EDBCFE3FFE806FCE2800E76
:1012F8006FEC0BF0000E0001A46F130E0001A46543
:1013080001D013D00001A451010D8A0EF324D96E27
:10131800000EF420DA6EDF5000019F6F00019F512C
:10132800ECEC09F00001A42BE8D7C00E6FEC0BF031
:1013380007EC0CF00001A56F0001A551ECEC09F0D9
:101348000001A55136EC0BF00001A06F07EC0CF082
:101358000001A56F0001A551ECEC09F00001A551B1
:1013680036EC0BF00001A16F07EC0CF00001A56F43
:101378000001A551ECEC09F00001A55136EC0BF089
:101388000001A26F07EC0CF00001A56F0001A55148
:10139800ECEC09F00001A55136EC0BF00001A36F4D
:1013A8000001A0510A0DF3500001A125326E000181
:1013B800A2510A0DF3500001A325346E010E1E6ED2
:1013C800F40E1D6E40EC0CF0010E6FEC0BF01200E9
:1013D8001F6E838C3F0E1E6E550EE82EFED71E2EF6
:1013E800FCD700F01FC020F020380F0B206E2050D3
:1013F8000F0B836E7D0E1E6EAC0EE82EFED71E2ED2
:10140800FCD7838C7D0E1E6EAC0EE82EFED71E2EEA
:10141800FCD76FEC0CF07D0E1E6EAC0EE82EFED7DE
:101428001E2EFCD71FC020F020500F0B836E7D0EA0
:101438001E6EAC0EE82EFED71E2EFCD7838C9C0E9B
:101448001E6ED70EE82EFED71E2EFCD700F06FECCE
:101458000CF09C0E1E6ED70EE82EFED71E2EFCD763
:1014680000F01200036E838C3F0E026E550EE82EBC
:10147800FED7022EFCD700F003C004F004380F0B8F
:10148800046E04500F0B836E7D0E026EAC0EE82EB8
:10149800FED7022EFCD7838C7D0E026EAC0EE82E92
:1014A800FED7022EFCD780EC0CF07D0E026EAC0E3F
:1014B800E82EFED7022EFCD703C004F004500F0B11
:1014C800836E7D0E026EAC0EE82EFED7022EFCD780
:1014D800838C9C0E026ED70EE82EFED7022EFCD708
:1014E80000F080EC0CF09C0E026ED70EE82EFED7B2
:1014F800022EFCD700F01200000E066E04AE06D0D5
:10150800036C041ED8B0042A010E066E02AE06D083
:10151800016C021ED8B0022A010E061A000E086ECF
:10152800000E076E03500410D8B41CD0010E056ECF
:1015380004D0D89003360436052A04AEFAD7D890DA
:10154800073608360350015C04500258D8A005D06D
:101558000350015E0450025A0780D89004320332C7
:10156800052EEDD70650D8B404D0076C081ED8B0A5
:10157800082A07C001F008C002F01200016E17D057
:10158800300E13D0310E11D0320E0FD0330E0DD0D5
:10159800340E0BD0350E09D0360E07D0370E05D0D5
:1015A800380E03D0390E01D03F0E026E20D0015004
:1015B800000AD8B4E5D7010AD8B4E4D7030AD8B4E6
:1015C800E3D7010AD8B4E2D7070AD8B4E1D7010AA9
:1015D800D8B4E0D7030AD8B4DFD7010AD8B4DED725
:1015E8000F0AD8B4DDD7010AD8B4DCD7DDD702504A
:1015F8001200000E956E000E836E8398839C839A6A
:10160800000E236E000E226E23BE06D023500FE17B
:10161800640E225CD8B00BD09C0E216ED70EE82E3B
:10162800FED7212EFCD700F0224A232AEDD7330E0D
:101638006FEC0BF0320E6FEC0BF0280E6FEC0BF02A
:101648000E0E6FEC0BF0060E6FEC0BF0010E6FEC4C
:101658000BF09C0E216ED70EE82EFED7212EFCD75C
:1016680000F012001D6E15D0010E11D0020E0FD021
:10167800030E0DD0040E0BD0050E09D0060E07D0B0
:10168800070E05D0080E03D0090E01D0000E1E6EFD
:1016980020D01D50300AD8B4F9D7010AD8B4E4D7FD
:1016A800030AD8B4E3D7010AD8B4E2D7070AD8B4F2
:1016B800E1D7010AD8B4E0D7030AD8B4DFD7010AC2
:1016C800D8B4DED70F0AD8B4DDD7010AD8B4DCD72E
:1016D800DDD71E5012001F6E839C3F0E1E6E550EE6
:1016E800E82EFED71E2EFCD700F01FC020F02038B1
:1016F8000F0B206E20500F0B836E7D0E1E6EAC0EEE
:10170800E82EFED71E2EFCD76FEC0CF07D0E1E6E59
:10171800AC0EE82EFED71E2EFCD71FC020F020509E
:101728000F0B836E7D0E1E6EAC0EE82EFED71E2E9E
:10173800FCD76FEC0CF07D0E1E6EAC0EE82EFED7BB
:101748001E2EFCD71200036E839C3F0E026E550EB0
:10175800E82EFED7022EFCD700F003C004F00438B0
:101768000F0B046E04500F0B836E7D0E026EAC0ED1
:10177800E82EFED7022EFCD780EC0CF07D0E026E10
:10178800AC0EE82EFED7022EFCD703C004F004509E
:101798000F0B836E7D0E026EAC0EE82EFED7022E66
:1017A800FCD780EC0CF07D0E026EAC0EE82EFED756
:1017B800022EFCD71200010E306E0F0EC16E070EFE
:1017C800B46EFDEC0AF0D5EC08F072EC09F091EC7F
:1017D8000CF0000E946E32503118D8A40CD034504E
:1017E8003318D8A408D0020E3018D8A4F4D79FEC28
:1017F8000CF0010E06D03004D8A4EDD7A2EC0CF002
:10180800020E306EE8D71B0EF66E100EF76E20EE45
:101818001DF0110E0900F5CFDEFFE806FBE281AAF4
:10182800FED781500F0B2F6E81BAFED72F50010DB6
:101838001D0EF324D96E000EF420DA6EDF5012006C
:10184800356A346A336A326A316AB40EF66E180E33
:10185800F76E000EF86E00EE60F010EE2AF0090048
:10186800F5CFEEFFE550E150FAE136903692000EE2
:10187800F86E0001DFEF0BF01D501E10D8B41200F7
:10188800000E216E000E206E0AD0100E1F6E940EF0
:10189800E82EFED71F2EFCD700D0204A212A1D5043
:1018A800205C1E502158D8B01200EFD75365742021
:1018B800616C61726D2074696D652068686D6D3A40
:1018C800005365742074696D652068686D6D737365
:1018D8003A202020200083887D0E1D6EAC0EE82E55
:1018E800FED71D2EFCD783987D0E1D6EAC0EE82EFC
:1018F800FED71D2EFCD7120083887D0E016EAC0E1C
:10190800E82EFED7012EFCD783987D0E016EAC0E13
:10191800E82EFED7012EFCD71200D08EF28E070ECD
:10192800D56E840EF16E480ED76EE50ED66ED58E46
:10193800F28AF2941200828082821200829082924D
:0219480012008B
:020000040020DA
:08000000FFFFFFFFFFFFFFFF00
:020000040030CA
:0E00000000051F1FFF8385FF0FC00FE00F409C
:00000001FF
