:041000000BEF08F0FA
:101008004382FACF09F0FBCF0AF017ED08F079EF29
:101018000DF00031323346343536453738394441DE
:101028003042432000000600E9CF0BF0EACF0CF075
:10103800E1CF0DF0E2CF0EF0D9CF0FF0DACF10F0FC
:10104800F3CF11F0F4CF12F0F6CF13F0F7CF14F07E
:10105800F8CF15F0F5CF16F0F2A485D04228426EED
:101068003B0E426410D0000E426E3E283E6E3B0E90
:101078003E6409D0000E3E6E3A283A6E170E3A6466
:1010880002D0000E3A6E3AC001F0026A000E046EF9
:101098000A0E036ED7EC0BF001501A6E1A500A0DA7
:1010A800F35000083A24176E3EC001F0026A000EA1
:1010B800046E0A0E036ED7EC0BF001501B6E1B502A
:1010C8000A0DF35000083E24186E42C001F0026A6F
:1010D800000E046E0A0E036ED7EC0BF001501C6E66
:1010E8001C500A0DF35000084224196E800E0AECB9
:1010F8000DF0540E8DEC0BF0690E8DEC0BF06D0EAF
:101108008DEC0BF0650E8DEC0BF0200E8DEC0BF0DA
:101118003D0E8DEC0BF0200E8DEC0BF01A5096EC7A
:101128000CF08DEC0BF0175096EC0CF08DEC0BF0EE
:101138003A0E8DEC0BF01B5096EC0CF08DEC0BF08E
:10114800185096EC0CF08DEC0BF03A0E8DEC0BF081
:101158001C5096EC0CF08DEC0BF0195096EC0CF042
:101168008DEC0BF0F29416C0F5FF15C0F8FF14C013
:10117800F7FF13C0F6FF12C0F4FF11C0F3FF10C051
:10118800DAFF0FC0D9FF0EC0E2FF0DC0E1FF0CC0AF
:10119800EAFF0BC0E9FF0AC0FBFF09C0FAFF439250
:1011A800110020EE9FF010EEC7F0140EDBCFE3FF26
:1011B800E806FCE2800E59EC0CF0000E0001E36F2B
:1011C800130E0001E36501D013D00001E351010DB6
:1011D800C70EF324D96E000EF420DA6EDF5000013A
:1011E800DC6F0001DC513EEC0BF00001E32BE8D78B
:1011F800C00E59EC0CF0F7EC0DF00001E46F0001A3
:10120800E4513EEC0BF00001E451D1EC0CF000018C
:10121800DD6FF7EC0DF00001E46F0001E4513EECE6
:101228000BF00001E451D1EC0CF00001DE6FF7EC9B
:101238000DF00001E46F0001E4513EEC0BF00001F9
:10124800E451D1EC0CF00001DF6FF7EC0DF0000178
:10125800E46F0001E4513EEC0BF00001E451D1ECE5
:101268000CF00001E06FF7EC0DF00001E46F0001F5
:10127800E4513EEC0BF00001E451D1EC0CF000011C
:10128800E16FF7EC0DF00001E46F0001E4513EEC72
:101298000BF00001E451D1EC0CF00001E26F000109
:1012A800DD510A0DF3500001DE253A6E0001DF51D1
:1012B8000A0DF3500001E0253E6E0001E1510A0DD0
:1012C800F3500001E225426E010E1E6EF40E1D6EF3
:1012D80016EC0EF0010E59EC0CF0120020EE8AF01C
:1012E80010EEC7F0140EDBCFE3FFE806FCE2080EB1
:1012F800806E800E59EC0CF0000E0001E16F130EA9
:101308000001E16501D013D00001E151010DC70EC4
:10131800F324D96E000EF420DA6EDF500001DC6F82
:101328000001DC513EEC0BF00001E12BE8D7C00EC8
:1013380059EC0CF0F7EC0DF00001E26F0001E251FE
:101348003EEC0BF00001E251D1EC0CF00001DD6F36
:10135800F7EC0DF00001E26F0001E2513EEC0BF0FA
:101368000001E251D1EC0CF00001DE6FF7EC0DF05A
:101378000001E26F0001E2513EEC0BF00001E25186
:10138800D1EC0CF00001DF6FF7EC0DF00001E26F1B
:101398000001E2513EEC0BF00001E251D1EC0CF0FF
:1013A8000001E06F0001DD510A0DF3500001DE2558
:1013B8003D6E0001DF510A0DF3500001E025416E3A
:1013C800010E1E6EF40E1D6E16EC0EF0010E59EC99
:1013D8000CF0120020EE75F010EEC7F0140EDBCF03
:1013E800E3FFE806FCE2040E806E800E59EC0CF078
:1013F800000E0001E16F130E0001E16501D013D06A
:101408000001E151010DC70EF324D96E000EF4203E
:10141800DA6EDF500001DC6F0001DC513EEC0BF0AE
:101428000001E12BE8D7C00E59EC0CF0F7EC0DF0F9
:101438000001E26F0001E2513EEC0BF00001E251C5
:10144800D1EC0CF00001DD6FF7EC0DF00001E26F5C
:101458000001E2513EEC0BF00001E251D1EC0CF03E
:101468000001DE6FF7EC0DF00001E26F0001E251C0
:101478003EEC0BF00001E251D1EC0CF00001DF6F03
:10148800F7EC0DF00001E26F0001E2513EEC0BF0C9
:101498000001E251D1EC0CF00001E06F0001DD51D8
:1014A8000A0DF3500001DE253C6E0001DF510A0DE4
:1014B800F3500001E025406E010E1E6EF40E1D6E05
:1014C80016EC0EF0010E59EC0CF0120020EE60F054
:1014D80010EEC7F0140EDBCFE3FFE806FCE2020EC5
:1014E800806E800E59EC0CF0000E0001E16F130EB7
:1014F8000001E16501D013D00001E151010DC70ED3
:10150800F324D96E000EF420DA6EDF500001DC6F90
:101518000001DC513EEC0BF00001E12BE8D7C00ED6
:1015280059EC0CF0F7EC0DF00001E26F0001E2510C
:101538003EEC0BF00001E251D1EC0CF00001DD6F44
:10154800F7EC0DF00001E26F0001E2513EEC0BF008
:101558000001E251D1EC0CF00001DE6FF7EC0DF068
:101568000001E26F0001E2513EEC0BF00001E25194
:10157800D1EC0CF00001DF6FF7EC0DF00001E26F29
:101588000001E2513EEC0BF00001E251D1EC0CF00D
:101598000001E06F0001DD510A0DF3500001DE2566
:1015A8003B6E0001DF510A0DF3500001E0253F6E4C
:1015B800010E1E6EF40E1D6E16EC0EF0010E59ECA7
:1015C8000CF012000F0EC16E070EB46E19EC0CF081
:1015D800300E926ED0EC0DF042EC0DF0D5EC08F028
:1015E8006AEC0AF0EEEC09F072EC09F057EC0EF038
:1015F8003B503A18D8A411D03F503E18D8A40DD06B
:1016080034503510D8A409D0030E806E80BAF0D7B4
:10161800000E356E010E346EEBD73C503A18D8A444
:1016280011D040503E18D8A40DD036503710D8A449
:1016380009D0050E806E80BADBD7000E376E010E1A
:10164800366ED6D73D503A18D8A411D041503E181E
:10165800D8A40DD038503910D8A409D0090E806EFE
:1016680080BAC6D7000E396E010E386EC1D7000E8B
:10167800806EBED70001B46F838C3F0E1E6E550E70
:10168800E82EFED71E2EFCD700F0B4C0B5F000013E
:10169800B5390F0B0001B56F0001B5510F0B836E03
:1016A8007D0E1E6EAC0EE82EFED71E2EFCD7838C48
:1016B8007D0E1E6EAC0EE82EFED71E2EFCD735EC26
:1016C8000EF07D0E1E6EAC0EE82EFED71E2EFCD739
:1016D800B4C0B5F00001B5510F0B836E7D0E1E6EC0
:1016E800AC0EE82EFED71E2EFCD7838C9C0E1E6EE9
:1016F800D70EE82EFED71E2EFCD700F035EC0EF0E4
:101708009C0E1E6ED70EE82EFED71E2EFCD700F0BC
:101718001200036E838C3F0E026E550EE82EFED724
:10172800022EFCD700F003C004F004380F0B046E3F
:1017380004500F0B836E7D0E026EAC0EE82EFED7A2
:10174800022EFCD7838C7D0E026EAC0EE82EFED7DF
:10175800022EFCD746EC0EF07D0E026EAC0EE82E83
:10176800FED7022EFCD703C004F004500F0B836E83
:101778007D0E026EAC0EE82EFED7022EFCD7838CAF
:101788009C0E026ED70EE82EFED7022EFCD700F074
:1017980046EC0EF09C0E026ED70EE82EFED7022EF7
:1017A800FCD700F01200000E066E04AE06D0036CE3
:1017B800041ED8B0042A010E066E02AE06D0016CD3
:1017C800021ED8B0022A010E061A000E086E000E7C
:1017D800076E03500410D8B41CD0010E056E04D057
:1017E800D89003360436052A04AEFAD7D8900736BF
:1017F80008360350015C04500258D8A005D00350A5
:10180800015E0450025A0780D89004320332052E34
:10181800EDD70650D8B404D0076C081ED8B0082AF3
:1018280007C001F008C002F01200000E956E000E0D
:10183800836E8398839C839A000E0001B86F000E14
:10184800B76F0001B8BF08D00001B85112E1640EAB
:101858000001B75DD8B00DD09C0E0001B66FD70E51
:10186800E82EFED7B62FFCD700F00001B74BB82BF7
:10187800E8D7330E59EC0CF0320E59EC0CF0280E68
:1018880059EC0CF00E0E59EC0CF0060E59EC0CF05D
:10189800010E59EC0CF09C0E0001B66FD70EE82E25
:1018A800FED7B62FFCD700F012000001B46F839C5E
:1018B8003F0E1E6E550EE82EFED71E2EFCD700F0EA
:1018C800B4C0B5F00001B5390F0B0001B56F0001C8
:1018D800B5510F0B836E7D0E1E6EAC0EE82EFED733
:1018E8001E2EFCD735EC0EF07D0E1E6EAC0EE82ECB
:1018F800FED71E2EFCD7B4C0B5F00001B5510F0BB2
:10190800836E7D0E1E6EAC0EE82EFED71E2EFCD703
:1019180035EC0EF07D0E1E6EAC0EE82EFED71E2E98
:10192800FCD71200016E17D0300E13D0310E11D033
:10193800320E0FD0330E0DD0340E0BD0350E09D029
:10194800360E07D0370E05D0380E03D0390E01D029
:101958003F0E026E20D00150000AD8B4E5D7010A24
:10196800D8B4E4D7030AD8B4E3D7010AD8B4E2D785
:10197800070AD8B4E1D7010AD8B4E0D7030AD8B423
:10198800DFD7010AD8B4DED70F0AD8B4DDD7010AE9
:10199800D8B4DCD7DDD7025012001D6E15D0010E69
:1019A80011D0020E0FD0030E0DD0040E0BD0050E71
:1019B80009D0060E07D0070E05D0080E03D0090E71
:1019C80001D0000E1E6E20D01D50300AD8B4F9D7B1
:1019D800010AD8B4E4D7030AD8B4E3D7010AD8B4C3
:1019E800E2D7070AD8B4E1D7010AD8B4E0D7030A86
:1019F800D8B4DFD7010AD8B4DED70F0AD8B4DDD7F8
:101A0800010AD8B4DCD7DDD71E501200036E839CC0
:101A18003F0E026E550EE82EFED7022EFCD700F0C0
:101A280003C004F004380F0B046E04500F0B836ED0
:101A38007D0E026EAC0EE82EFED7022EFCD746ECC9
:101A48000EF07D0E026EAC0EE82EFED7022EFCD7ED
:101A580003C004F004500F0B836E7D0E026EAC0EB3
:101A6800E82EFED7022EFCD746EC0EF07D0E026E55
:101A7800AC0EE82EFED7022EFCD71200010E806EA7
:101A8800010E1E6EF40E1D6E16EC0EF0020E806E28
:101A9800010E1E6EF40E1D6E16EC0EF0040E806E16
:101AA800010E1E6EF40E1D6E16EC0EF0080E806E02
:101AB800010E1E6EF40E1D6E16EC0EF00F0E806EEB
:101AC800010E1E6EF40E1D6E16EC0EF0000E806EEA
:101AD800000E356E000E346E000E376E000E366E38
:101AE800000E396E000E386E12004C0EF66E1B0E8C
:101AF800F76E000EF86E00EE60F010EE54F009007C
:101B0800F5CFEEFFE550E150FAE1CA0EF66E1C0E75
:101B1800F76E000EF86E00EE1FF010EE15F00900DB
:101B2800F5CFEEFFE550E150FAE100EE34F00F0E8C
:101B3800EE6AE806FDE143904392000EF86E00015C
:101B4800E6EF0AF05375626A6563742041205469B0
:101B58006D652068686D6D3A005375626A656374D7
:101B680020422054696D652068686D6D3A00537590
:101B7800626A65637420432054696D652068686DE6
:101B88006D3A005365742074696D652068686D6DE1
:101B980073733A202020200020EE1FF010EEB6F0DC
:101BA800140EDBCFE3FFE806FCE2800E59EC0CF0E4
:101BB800000E0001CC6F130E0001CC6501D012009D
:101BC8000001CC51010DB60EF324D96E000EF4209D
:101BD800DA6EDF500001CB6F0001CB513EEC0BF009
:101BE8000001CC2BE8D71B0EF66E100EF76E20EE18
:101BF800B4F0110E0900F5CFDEFFE806FBE281AA7A
:101C0800FED781500F0B0001C66F81BAFED70001C5
:101C1800C651010DB40EF324D96E000EF420DA6E0D
:101C2800DF5012001D501E10D8B41200000E000123
:101C3800B66F000EB56F0CD0100E0001B46F940E85
:101C4800E82EFED7B42FFCD700D00001B54BB62B39
:101C58001D500001B55D1E500001B659D8B01200E4
:101C6800EBD783887D0E1D6EAC0EE82EFED71D2E99
:101C7800FCD783987D0E1D6EAC0EE82EFED71D2E68
:101C8800FCD7120083887D0E016EAC0EE82EFED7BD
:101C9800012EFCD783987D0E016EAC0EE82EFED780
:101CA800012EFCD71200D08EF28E070ED56E840E50
:101CB800F16E480ED76EE50ED66ED58EF28AF29486
:101CC80012004554542056657273696F6E20312E88
:071CD8003320202020200032
:020000040020DA
:08000000FFFFFFFFFFFFFFFF00
:020000040030CA
:0E00000000051F1FFF8385FF0FC00FE00F409C
:00000001FF
