:041000000BEF08F0FA
:101008004382FACF09F0FBCF0AF017ED08F089EF19
:101018000DF00031323346343536453738394441DE
:101028003042432000000600E9CF0BF0EACF0CF075
:10103800E1CF0DF0E2CF0EF0D9CF0FF0DACF10F0FC
:10104800F3CF11F0F4CF12F0F6CF13F0F7CF14F07E
:10105800F8CF15F0F5CF16F0F2A485D04228426EED
:101068003B0E426410D0000E426E3E283E6E3B0E90
:101078003E6409D0000E3E6E3A283A6E170E3A6466
:1010880002D0000E3A6E3AC001F0026A000E046EF9
:101098000A0E036E24EC0CF001501A6E1A500A0D59
:1010A800F35000083A24176E3EC001F0026A000EA1
:1010B800046E0A0E036E24EC0CF001501B6E1B50DC
:1010C8000A0DF35000083E24186E42C001F0026A6F
:1010D800000E046E0A0E036E24EC0CF001501C6E18
:1010E8001C500A0DF35000084224196E800E1EECA5
:1010F8000DF0540E98EC0BF0690E98EC0BF06D0E99
:1011080098EC0BF0650E98EC0BF0200E98EC0BF0B9
:101118003D0E98EC0BF0200E98EC0BF01A50E3EC17
:101128000CF098EC0BF01750E3EC0CF098EC0BF08B
:101138003A0E98EC0BF01B50E3EC0CF098EC0BF02B
:101148001850E3EC0CF098EC0BF03A0E98EC0BF01E
:101158001C50E3EC0CF098EC0BF01950E3EC0CF09D
:1011680098EC0BF0F29416C0F5FF15C0F8FF14C008
:10117800F7FF13C0F6FF12C0F4FF11C0F3FF10C051
:10118800DAFF0FC0D9FF0EC0E2FF0DC0E1FF0CC0AF
:10119800EAFF0BC0E9FF0AC0FBFF09C0FAFF439250
:1011A800110020EE9FF010EEC7F0140EDBCFE3FF26
:1011B800E806FCE2800EE2EC0BF0000E0001E36FA3
:1011C800130E0001E36501D013D00001E351010DB6
:1011D800C70EF324D96E000EF420DA6EDF5000013A
:1011E800DC6F0001DC5142EC0BF00001E32BE8D787
:1011F800C00EE2EC0BF029EC0EF00001E46F0001E8
:10120800E45142EC0BF00001E451A6EC0CF00001B3
:10121800DD6F29EC0EF00001E46F0001E45142ECAF
:101228000BF00001E451A6EC0CF00001DE6F29EC94
:101238000EF00001E46F0001E45142EC0BF00001F4
:10124800E451A6EC0CF00001DF6F29EC0EF0000170
:10125800E46F0001E45142EC0BF00001E451A6EC0C
:101268000CF00001E06F29EC0EF00001E46F0001C2
:10127800E45142EC0BF00001E451A6EC0CF0000143
:10128800E16F29EC0EF00001E46F0001E45142EC3B
:101298000BF00001E451A6EC0CF00001E26F000134
:1012A800DD510A0DF3500001DE253A6E0001DF51D1
:1012B8000A0DF3500001E0253E6E0001E1510A0DD0
:1012C800F3500001E225426E010E0001B56FF40EE5
:1012D800B46F07EC0EF0010EE2EC0BF0120020EEFA
:1012E8008AF010EEC7F0140EDBCFE3FFE806FCE24D
:1012F800080E806E800EE2EC0BF0000E0001E16F2C
:10130800130E0001E16501D013D00001E151010D78
:10131800C70EF324D96E000EF420DA6EDF500001F8
:10132800DC6F0001DC5142EC0BF00001E12BE8D747
:10133800C00EE2EC0BF029EC0EF00001E26F0001A8
:10134800E25142EC0BF00001E251A6EC0CF0000176
:10135800DD6F29EC0EF00001E26F0001E25142EC72
:101368000BF00001E251A6EC0CF00001DE6F29EC55
:101378000EF00001E26F0001E25142EC0BF00001B7
:10138800E251A6EC0CF00001DF6F29EC0EF0000131
:10139800E26F0001E25142EC0BF00001E251A6ECD1
:1013A8000CF00001E06F0001DD510A0DF35000015F
:1013B800DE253D6E0001DF510A0DF3500001E025E6
:1013C800416E010E0001B56FF40EB46F07EC0EF01C
:1013D800010EE2EC0BF0120020EE75F010EEC7F0F3
:1013E800140EDBCFE3FFE806FCE2040E806E800EED
:1013F800E2EC0BF0000E0001E16F130E0001E16555
:1014080001D013D00001E151010DC70EF324D96EAC
:10141800000EF420DA6EDF500001DC6F0001DC51B1
:1014280042EC0BF00001E12BE8D7C00EE2EC0BF028
:1014380029EC0EF00001E26F0001E25142EC0BF0E2
:101448000001E251A6EC0CF00001DD6F29EC0EF072
:101458000001E26F0001E25142EC0BF00001E251A1
:10146800A6EC0CF00001DE6F29EC0EF00001E26F33
:101478000001E25142EC0BF00001E251A6EC0CF045
:101488000001DF6F29EC0EF00001E26F0001E2516C
:1014980042EC0BF00001E251A6EC0CF00001E06F09
:1014A8000001DD510A0DF3500001DE253C6E0001FC
:1014B800DF510A0DF3500001E025406E010E0001D6
:1014C800B56FF40EB46F07EC0EF0010EE2EC0BF002
:1014D800120020EE60F010EEC7F0140EDBCFE3FF31
:1014E800E806FCE2020E806E800EE2EC0BF0000EC5
:1014F8000001E16F130E0001E16501D013D0000176
:10150800E151010DC70EF324D96E000EF420DA6EF6
:10151800DF500001DC6F0001DC5142EC0BF00001F0
:10152800E12BE8D7C00EE2EC0BF029EC0EF000013D
:10153800E26F0001E25142EC0BF00001E251A6EC2F
:101548000CF00001DD6F29EC0EF00001E26F0001E4
:10155800E25142EC0BF00001E251A6EC0CF0000164
:10156800DE6F29EC0EF00001E26F0001E25142EC5F
:101578000BF00001E251A6EC0CF00001DF6F29EC42
:101588000EF00001E26F0001E25142EC0BF00001A5
:10159800E251A6EC0CF00001E06F0001DD510A0DEC
:1015A800F3500001DE253B6E0001DF510A0DF350B8
:1015B8000001E0253F6E010E0001B56FF40EB46F17
:1015C80007EC0EF0010EE2EC0BF012000F0EC16EEC
:1015D800070EB46E66EC0CF0300E926EE0EC0DF077
:1015E80056EC0DF0D5EC08F06DEC0AF0F0EC09F0D3
:1015F80073EC09F06AEC0EF03B503A18D8A411D0FD
:101608003F503E18D8A40DD034503510D8A409D076
:10161800030E806E80BAF0D7000E356E010E346E60
:10162800EBD73C503A18D8A411D040503E18D8A453
:101638000DD036503710D8A409D0050E806E80BA68
:10164800DBD7000E376E010E366ED6D73D503A18EE
:10165800D8A411D041503E18D8A40DD03850391014
:10166800D8A409D0090E806E80BAC6D7000E396E8C
:10167800010E386EC1D7000E806EBED70001B56F5F
:10168800838C3F0E0001B46F550EE82EFED7B42FA1
:10169800FCD700F0B5C0B6F00001B6390F0B000159
:1016A800B66F0001B6510F0B836E7D0E0001B46F4B
:1016B800AC0EE82EFED7B42FFCD7838C7D0E00012C
:1016C800B46FAC0EE82EFED7B42FFCD748EC0EF062
:1016D8007D0E0001B46FAC0EE82EFED7B42FFCD7F8
:1016E800B5C0B6F00001B6510F0B836E7D0E000138
:1016F800B46FAC0EE82EFED7B42FFCD7838C9C0EAB
:101708000001B46FD70EE82EFED7B42FFCD700F037
:1017180048EC0EF09C0E0001B46FD70EE82EFED7F1
:10172800B42FFCD700F01200036E838C3F0E026EBC
:10173800550EE82EFED7022EFCD700F003C004F0A9
:1017480004380F0B046E04500F0B836E7D0E026E6F
:10175800AC0EE82EFED7022EFCD7838C7D0E026ECF
:10176800AC0EE82EFED7022EFCD759EC0EF07D0EFB
:10177800026EAC0EE82EFED7022EFCD703C004F092
:1017880004500F0B836E7D0E026EAC0EE82EFED752
:10179800022EFCD7838C9C0E026ED70EE82EFED745
:1017A800022EFCD700F059EC0EF09C0E026ED70EFC
:1017B800E82EFED7022EFCD700F012000001B56F0C
:1017C800839C3F0E0001B46F550EE82EFED7B42F50
:1017D800FCD700F0B5C0B6F00001B6390F0B000118
:1017E800B66F0001B6510F0B836E7D0E0001B46F0A
:1017F800AC0EE82EFED7B42FFCD748EC0EF07D0EC9
:101808000001B46FAC0EE82EFED7B42FFCD7B5C0DC
:10181800B6F00001B6510F0B836E7D0E0001B46F58
:10182800AC0EE82EFED7B42FFCD748EC0EF07D0E98
:101838000001B46FAC0EE82EFED7B42FFCD712000F
:10184800000E066E04AE06D0036C041ED8B0042A3F
:10185800010E066E02AE06D0016C021ED8B0022A36
:10186800010E061A000E086E000E076E03500410D3
:10187800D8B41CD0010E056E04D0D89003360436B7
:10188800052A04AEFAD7D890073608360350015C0B
:1018980004500258D8A005D00350015E0450025AE3
:1018A8000780D89004320332052EEDD70650D8B4FD
:1018B80004D0076C081ED8B0082A07C001F008C079
:1018C80002F01200000E956E000E836E8398839CC2
:1018D800839A000E0001B96F000EB86F0001B9BFFE
:1018E80008D00001B95112E1640E0001B85DD8B00A
:1018F8000DD09C0E0001B76FD70EE82EFED7B72F7C
:10190800FCD700F00001B84BB92BE8D7330EE2EC56
:101918000BF0320EE2EC0BF0280EE2EC0BF00E0EA0
:10192800E2EC0BF0060EE2EC0BF0010EE2EC0BF031
:101938009C0E0001B76FD70EE82EFED7B72FFCD745
:1019480000F012000001B46F16D0010E11D0020E83
:101958000FD0030E0DD0040E0BD0050E09D0060EC5
:1019680007D0070E05D0080E03D0090E01D0000ECF
:101978000001B56F21D00001B451300AD8B4F7D7AF
:10198800010AD8B4E2D7030AD8B4E1D7010AD8B417
:10199800E0D7070AD8B4DFD7010AD8B4DED7030ADC
:1019A800D8B4DDD7010AD8B4DCD70F0AD8B4DBD74E
:1019B800010AD8B4DAD7DBD70001B5511200016E9D
:1019C80017D0300E13D0310E11D0320E0FD0330E87
:1019D8000DD0340E0BD0350E09D0360E07D0370E89
:1019E80005D0380E03D0390E01D03F0E026E20D03C
:1019F8000150000AD8B4E5D7010AD8B4E4D7030ADD
:101A0800D8B4E3D7010AD8B4E2D7070AD8B4E1D7E3
:101A1800010AD8B4E0D7030AD8B4DFD7010AD8B48A
:101A2800DED70F0AD8B4DDD7010AD8B4DCD7DDD7A2
:101A380002501200036E839C3F0E026E550EE82E74
:101A4800FED7022EFCD700F003C004F004380F0BB9
:101A5800046E04500F0B836E7D0E026EAC0EE82EE2
:101A6800FED7022EFCD759EC0EF07D0E026EAC0E9E
:101A7800E82EFED7022EFCD703C004F004500F0B4B
:101A8800836E7D0E026EAC0EE82EFED7022EFCD7BA
:101A980059EC0EF07D0E026EAC0EE82EFED7022E2B
:101AA800FCD71200020E806E030E0001B56FE80E1F
:101AB800B46F07EC0EF0040E806E030E0001B56FD4
:101AC800E80EB46F07EC0EF0080E806E030E0001EE
:101AD800B56FE80EB46F07EC0EF00F0E806E030EB4
:101AE8000001B56FE80EB46F07EC0EF0000E806EC3
:101AF800000E356E000E346E000E376E000E366E18
:101B0800000E396E000E386E12006C0EF66E1B0E4B
:101B1800F76E000EF86E00EE60F010EE54F009005B
:101B2800F5CFEEFFE550E150FAE1F00EF66E1C0E2F
:101B3800F76E000EF86E00EE1EF010EE16F00900BB
:101B4800F5CFEEFFE550E150FAE100EE34F00F0E6C
:101B5800EE6AE806FDE143904392000EF86E00013C
:101B6800EAEF0AF05375626A65637420412054698C
:101B78006D652068686D6D3A005375626A656374B7
:101B880020422054696D652068686D6D3A00537570
:101B9800626A65637420432054696D652068686DC6
:101BA8006D3A005365742074696D652068686D6DC1
:101BB80073733A202020200020EE1EF010EEB7F0BC
:101BC800150EDBCFE3FFE806FCE2800EE2EC0BF03B
:101BD800000E0001CE6F130E0001CE6501D0120079
:101BE8000001CE51010DB70EF324D96E000EF4207A
:101BF800DA6EDF500001CD6F0001CD5142EC0BF0E1
:101C08000001CE2BE8D70001B4510001B511D8B4BA
:101C18001200000E0001B76F000EB66F0BD0100E49
:101C28001D6E940EE82EFED71D2EFCD700D00001A5
:101C3800B64BB72B0001B4510001B65D0001B55198
:101C48000001B759D8B01200EAD71B0EF66E100E75
:101C5800F76E20EEB4F0110E0900F5CFDEFFE806AE
:101C6800FBE281AAFED781500F0B0001C66F81BA33
:101C7800FED70001C651010DB40EF324D96E000E33
:101C8800F420DA6EDF50120083887D0E1D6EAC0ED4
:101C9800E82EFED71D2EFCD783987D0E1D6EAC0E48
:101CA800E82EFED71D2EFCD7120083887D0E016E0C
:101CB800AC0EE82EFED7012EFCD783987D0E016E60
:101CC800AC0EE82EFED7012EFCD71200D08EF28E75
:101CD800070ED56E840EF16E480ED76EE50ED66EE1
:101CE800D58EF28AF29412004554542056657273C8
:0E1CF800696F6E20312E3361202020202000E5
:020000040020DA
:08000000FFFFFFFFFFFFFFFF00
:020000040030CA
:0E00000000051F1FFF8385FF0FC00FE00F409C
:00000001FF
