:041000000BEF08F0FA
:101008003F82FACF09F0FBCF0AF017ED08F0E3EFC3
:101018000BF00031323346343536453738394441E0
:101028003042432000000600E9CF0BF0EACF0CF075
:10103800E1CF0DF0E2CF0EF0D9CF0FF0DACF10F0FC
:10104800F3CF11F0F4CF12F0F6CF13F0F7CF14F07E
:10105800F8CF15F0F5CF16F0F2A489D0480ED76E68
:10106800E50ED66E3E283E6E3B0E3E6410D0000E56
:101078003E6E3C283C6E3B0E3C6409D0000E3C6E34
:101088003A283A6E170E3A6402D0000E3A6E3AC009
:1010980001F0026A000E046E0A0E036E84EC0AF078
:1010A80001501A6E1A500A0DF35000083A24176EB0
:1010B8003CC001F0026A000E046E0A0E036E84EC56
:1010C8000AF001501B6E1B500A0DF35000083C2417
:1010D800186E3EC001F0026A000E046E0A0E036E1E
:1010E80084EC0AF001501C6E1C500A0DF3500008E5
:1010F8003E24196E800EABEC0BF0740E3AEC0AF03D
:10110800690E3AEC0AF06D0E3AEC0AF0650E3AEC0C
:101118000AF0200E3AEC0AF03D0E3AEC0AF0200EE6
:101128003AEC0AF01A50C6EC0AF03AEC0AF01750FA
:10113800C6EC0AF03AEC0AF03A0E3AEC0AF01B5008
:10114800C6EC0AF03AEC0AF01850C6EC0AF03AEC91
:101158000AF03A0E3AEC0AF01C50C6EC0AF03AECE7
:101168000AF01950C6EC0AF03AEC0AF0F29416C0EC
:10117800F5FF15C0F8FF14C0F7FF13C0F6FF12C043
:10118800F4FF11C0F3FF10C0DAFF0FC0D9FF0EC083
:10119800E2FF0DC0E1FF0CC0EAFF0BC0E9FF0AC087
:1011A800FBFF09C0FAFF3F92110020EE75F010EE28
:1011B800B2F0140EDBCFE3FFE806FCE2800E73EC1E
:1011C8000BF0000E0001CE6F130E0001CE6501D0AA
:1011D80013D00001CE51010DB20EF324D96E000ECA
:1011E800F420DA6EDF500001C76F0001C751F0EC40
:1011F80009F00001CE2BE8D7C00E73EC0BF0A3EC7E
:101208000CF00001CF6F0001CF51F0EC09F00001A4
:10121800CF513AEC0BF00001C86FA3EC0CF00001C1
:10122800CF6F0001CF51F0EC09F00001CF513AEC3B
:101238000BF00001C96FA3EC0CF00001CF6F0001A7
:10124800CF51F0EC09F00001CF513AEC0BF000015E
:10125800CA6FA3EC0CF00001CF6F0001CF51F0EC86
:1012680009F00001CF513AEC0BF00001CB6FA3EC71
:101278000CF00001CF6F0001CF51F0EC09F0000134
:10128800CF513AEC0BF00001CC6FA3EC0CF000014D
:10129800CF6F0001CF51F0EC09F00001CF513AECCB
:1012A8000BF00001CD6F0001C8510A0DF350000189
:1012B800C9253A6E0001CA510A0DF3500001CB2529
:1012C8003C6E0001CC510A0DF3500001CD253E6E55
:1012D800010E1E6EF40E1D6EC2EC0CF0010E73ECC6
:1012E8000BF0120020EE60F010EEB2F0140EDBCF1F
:1012F800E3FFE806FCE2800E73EC0BF0000E000141
:10130800CC6F130E0001CC6501D013D00001CC5175
:10131800010DB20EF324D96E000EF420DA6EDF5000
:101328000001C76F0001C751F0EC09F00001CC2B98
:10133800E8D7C00E73EC0BF0A3EC0CF00001CD6FF6
:101348000001CD51F0EC09F00001CD513AEC0BF061
:101358000001C86FA3EC0CF00001CD6F0001CD5166
:10136800F0EC09F00001CD513AEC0BF00001C96F27
:10137800A3EC0CF00001CD6F0001CD51F0EC09F0A9
:101388000001CD513AEC0BF00001CA6FA3EC0CF050
:101398000001CD6F0001CD51F0EC09F00001CD51F5
:1013A8003AEC0BF00001CB6F0001C8510A0DF35065
:1013B8000001C9253B6E0001CA510A0DF350000116
:1013C800CB253D6E010E1E6EF40E1D6EC2EC0CF0A8
:1013D800010E73EC0BF012001F6E838C3F0E1E6E15
:1013E800550EE82EFED71E2EFCD700F01FC020F0A9
:1013F80020380F0B206E20500F0B836E7D0E1E6E53
:10140800AC0EE82EFED71E2EFCD7838C7D0E1E6EEA
:10141800AC0EE82EFED71E2EFCD7DCEC0CF07D0EB1
:101428001E6EAC0EE82EFED71E2EFCD71FC020F075
:1014380020500F0B836E7D0E1E6EAC0EE82EFED76D
:101448001E2EFCD7838C9C0E1E6ED70EE82EFED760
:101458001E2EFCD700F0DCEC0CF09C0E1E6ED70E96
:10146800E82EFED71E2EFCD700F01200036E838CE8
:101478003F0E026E550EE82EFED7022EFCD700F066
:1014880003C004F004380F0B046E04500F0B836E76
:101498007D0E026EAC0EE82EFED7022EFCD7838C92
:1014A8007D0E026EAC0EE82EFED7022EFCD7EDECB8
:1014B8000CF07D0E026EAC0EE82EFED7022EFCD785
:1014C80003C004F004500F0B836E7D0E026EAC0E49
:1014D800E82EFED7022EFCD7838C9C0E026ED70E08
:1014E800E82EFED7022EFCD700F0EDEC0CF09C0E97
:1014F800026ED70EE82EFED7022EFCD700F012009F
:10150800000E066E04AE06D0036C041ED8B0042A82
:10151800010E066E02AE06D0016C021ED8B0022A79
:10152800010E061A000E086E000E076E0350041016
:10153800D8B41CD0010E056E04D0D89003360436FA
:10154800052A04AEFAD7D890073608360350015C4E
:1015580004500258D8A005D00350015E0450025A26
:101568000780D89004320332052EEDD70650D8B440
:1015780004D0076C081ED8B0082A07C001F008C0BC
:1015880002F01200016E17D0300E13D0310E11D0B8
:10159800320E0FD0330E0DD0340E0BD0350E09D0CD
:1015A800360E07D0370E05D0380E03D0390E01D0CD
:1015B8003F0E026E20D00150000AD8B4E5D7010AC8
:1015C800D8B4E4D7030AD8B4E3D7010AD8B4E2D729
:1015D800070AD8B4E1D7010AD8B4E0D7030AD8B4C7
:1015E800DFD7010AD8B4DED70F0AD8B4DDD7010A8D
:1015F800D8B4DCD7DDD702501200000E956E000E6D
:10160800836E8398839C839A000E236E000E226E4D
:1016180023BE06D023500FE1640E225CD8B00BD055
:101628009C0E216ED70EE82EFED7212EFCD700F097
:10163800224A232AEDD7330E73EC0BF0320E73ECEB
:101648000BF0280E73EC0BF00E0E73EC0BF0060E7D
:1016580073EC0BF0010E73EC0BF09C0E216ED70EA1
:10166800E82EFED7212EFCD700F012001D6E15D0F3
:10167800010E11D0020E0FD0030E0DD0040E0BD0A8
:10168800050E09D0060E07D0070E05D0080E03D0A8
:10169800090E01D0000E1E6E20D01D50300AD8B49D
:1016A800F9D7010AD8B4E4D7030AD8B4E3D7010AB2
:1016B800D8B4E2D7070AD8B4E1D7010AD8B4E0D73A
:1016C800030AD8B4DFD7010AD8B4DED70F0AD8B4D2
:1016D800DDD7010AD8B4DCD7DDD71E5012001F6E43
:1016E800839C3F0E1E6E550EE82EFED71E2EFCD78D
:1016F80000F01FC020F020380F0B206E20500F0B79
:10170800836E7D0E1E6EAC0EE82EFED71E2EFCD705
:10171800DCEC0CF07D0E1E6EAC0EE82EFED71E2EF5
:10172800FCD71FC020F020500F0B836E7D0E1E6E5D
:10173800AC0EE82EFED71E2EFCD7DCEC0CF07D0E8E
:101748001E6EAC0EE82EFED71E2EFCD71200036EBE
:10175800839C3F0E026E550EE82EFED7022EFCD754
:1017680000F003C004F004380F0B046E04500F0B94
:10177800836E7D0E026EAC0EE82EFED7022EFCD7CD
:10178800EDEC0CF07D0E026EAC0EE82EFED7022EAC
:10179800FCD703C004F004500F0B836E7D0E026E5D
:1017A800AC0EE82EFED7022EFCD7EDEC0CF07D0E29
:1017B800026EAC0EE82EFED7022EFCD712003E6A4F
:1017C8003D6A3C6A3B6A3A6A060EF66E190EF76E77
:1017D800000EF86E00EE60F010EE3FF00900F5CF55
:1017E800EEFFE550E150FAE1180EF66E1A0EF76EAC
:1017F800000EF86E00EE25F010EE15F00900F5CF9A
:10180800EEFFE550E150FAE13F903F92000EF86E8E
:1018180000015DEF0CF020EE25F010EE9FF0140EA5
:10182800DBCFE3FFE806FCE2C00E73EC0BF0000E22
:101838000001B56F130E0001B56501D0120000015B
:10184800B551010D9F0EF324D96E000EF420DA6E07
:10185800DF500001B46F0001B451F0EC09F0000151
:10186800B52BE8D720EE8AF010EE9FF0140EDBCFF0
:10187800E3FFE806FCE2C00E73EC0BF0000E00017B
:10188800B56F130E0001B56501D012000001B55106
:10189800010D9F0EF324D96E000EF420DA6EDF508E
:1018A8000001B46F0001B451F0EC09F00001B52B50
:1018B800E8D7010E246E0F0EC16E070EB46E01EC50
:1018C8000BF0D9EC08F076EC09F0FEEC0CF03B508C
:1018D8003A18D8A40CD03D503C18D8A408D0020E11
:1018E8002418D8A4F4D70FEC0CF0010E06D0240469
:1018F800D8A4EDD736EC0CF0020E246EE8D7536569
:101908007420616C61726D2074696D652068686D02
:101918006D3A005365742074696D652068686D6D53
:1019280073733A2020202000416C61726D204F664D
:1019380066202020202020202020202000001B0EB0
:10194800F66E100EF76E20EE9FF0110E0900F5CF1F
:10195800DEFFE806FBE281AAFED781500F0B0001EB
:10196800B16F81BAFED70001B151010D9F0EF3246A
:10197800D96E000EF420DA6EDF5012001D501E10D2
:10198800D8B41200000E216E000E206E0AD0100E80
:101998001F6E940EE82EFED71F2EFCD700D0204ACB
:1019A800212A1D50205C1E502158D8B01200EFD7B4
:1019B80083887D0E1D6EAC0EE82EFED71D2EFCD73B
:1019C80083987D0E1D6EAC0EE82EFED71D2EFCD71B
:1019D800120083887D0E016EAC0EE82EFED7012E14
:1019E800FCD783987D0E016EAC0EE82EFED7012E33
:1019F800FCD71200D08EF28E000ED56E840EF16EDA
:101A0800480ED76EE50ED66ED58EF28AF294120085
:101A1800416C61726D204F6E2020202020202020F4
:061A280020202020000038
:020000040020DA
:08000000FFFFFFFFFFFFFFFF00
:020000040030CA
:0E00000000051F1FFF8385FF0FC00FE00F409C
:00000001FF
