:04100000CFEF3EF000
:107D7100303132333435363738390083887D0E015E
:107D81006EAC0EE82EFED7012EFCD783987D0E0136
:107D91006EAC0EE82EFED7012EFCD71200710EF646
:107DA1006E7D0EF76E000EF86E00EE19F010EE0B00
:107DB100F00900F5CFEEFFE550E150FAE100019D39
:107DC100EF3FF0036E839C3F0E026E550EE82EFED0
:107DD100D7022EFCD700F003C004F004380F0B04C7
:107DE1006E04500F0B836E7D0E026EAC0EE82EFEFC
:107DF100D7022EFCD7BEEC3EF07D0E026EAC0EE833
:107E01002EFED7022EFCD703C004F004500F0B83C3
:107E11006E7D0E026EAC0EE82EFED7022EFCD7BE92
:107E2100EC3EF07D0E026EAC0EE82EFED7022EFC6B
:107E3100D71200000E956E000E836E8398839C838B
:107E41009A000E076E000E066E07BE06D007500F91
:107E5100E1640E065CD8B00BD09C0E056ED70EE81F
:107E61002EFED7052EFCD700F0064A072AEDD733A0
:107E71000EE2EC3EF0320EE2EC3EF0280EE2EC3E79
:107E8100F00E0EE2EC3EF0060EE2EC3EF0010EE2E8
:107E9100EC3EF09C0E056ED70EE82EFED7052EFCAB
:107EA100D700F01200036E838C3F0E026E550EE870
:107EB1002EFED7022EFCD700F003C004F004380FC9
:107EC1000B046E04500F0B836E7D0E026EAC0EE838
:107ED1002EFED7022EFCD7838C7D0E026EAC0EE8EF
:107EE1002EFED7022EFCD7BEEC3EF07D0E026EAC0C
:107EF1000EE82EFED7022EFCD703C004F004500F6B
:107F01000B836E7D0E026EAC0EE82EFED7022EFCA8
:107F1100D7838C9C0E026ED70EE82EFED7022EFC64
:107F2100D700F0BEEC3EF09C0E026ED70EE82EFE9E
:107F3100D7022EFCD700F01200000E146E000E13B3
:107F41006E000E186E000E176E20EE19F010EE087E
:107F5100F00A0EDBCFE3FFE806FCE21AEC3FF0800B
:107F61000EE2EC3EF0000E186E000E176E18BE0603
:107F7100D01850F5E1060E175CD8B0F1D7060E17F0
:107F8100181810D8A420D0000E186E000E176E130A
:107F91004A142A080E1324D96E000E1420DA6EDF5B
:107FA10050156E080E1724D96E000E1820DA6EDFF8
:107FB10050166E800EE2EC3EF0155053EC3FF01679
:107FC1005053EC3FF008D0080E1324D96E000E1464
:107FD10020DA6EDF50156E080E1724D96E000E18C8
:107FE10020DA6EDF50166E800EE2EC3EF015505333
:107FF100EC3FF0165053EC3FF0174A182AB7D7FF61
:020000040020DA
:08000000FFFFFFFFFFFFFFFF00
:020000040030CA
:0E00000000051F1FFF8385FF0FC00FE00F409C
:00000001FF
