:041000000BEF08F0FA
:101008004282FACF09F0FBCF0AF017ED08F00EEF95
:101018000DF00031323346343536453738394441DE
:101028003042432000000600E9CF0BF0EACF0CF075
:10103800E1CF0DF0E2CF0EF0D9CF0FF0DACF10F0FC
:10104800F3CF11F0F4CF12F0F6CF13F0F7CF14F07E
:10105800F8CF15F0F5CF16F0F2A485D04128416EEF
:101068003B0E416410D0000E416E3D283D6E3B0E94
:101078003D6409D0000E3D6E3928396E170E39646B
:1010880002D0000E396E39C001F0026A000E046EFB
:101098000A0E036E7AEC0BF001501A6E1A500A0D04
:1010A800F35000083924176E3DC001F0026A000EA3
:1010B800046E0A0E036E7AEC0BF001501B6E1B5087
:1010C8000A0DF35000083D24186E41C001F0026A71
:1010D800000E046E0A0E036E7AEC0BF001501C6EC3
:1010E8001C500A0DF35000084124196E800EA1EC23
:1010F8000CF0740E30EC0BF0690E30EC0BF06D0E4A
:1011080030EC0BF0650E30EC0BF0200E30EC0BF0F1
:101118003D0E30EC0BF0200E30EC0BF01A50BCEC0E
:101128000BF030EC0BF01750BCEC0BF030EC0BF084
:101138003A0E30EC0BF01B50BCEC0BF030EC0BF023
:101148001850BCEC0BF030EC0BF03A0E30EC0BF016
:101158001C50BCEC0BF030EC0BF01950BCEC0BF055
:1011680030EC0BF0F29416C0F5FF15C0F8FF14C070
:10117800F7FF13C0F6FF12C0F4FF11C0F3FF10C051
:10118800DAFF0FC0D9FF0EC0E2FF0DC0E1FF0CC0AF
:10119800EAFF0BC0E9FF0AC0FBFF09C0FAFF429251
:1011A800110020EE9FF010EEC7F0140EDBCFE3FF26
:1011B800E806FCE2800E69EC0CF0000E0001E36F1B
:1011C800130E0001E36501D013D00001E351010DB6
:1011D800C70EF324D96E000EF420DA6EDF5000013A
:1011E800DC6F0001DC51E6EC0AF00001E32BE8D7E4
:1011F800C00E69EC0CF08CEC0DF00001E46F0001FE
:10120800E451E6EC0AF00001E45130EC0CF0000186
:10121800DD6F8CEC0DF00001E46F0001E451E6ECA9
:101228000AF00001E45130EC0CF00001DE6F8CECA8
:101238000DF00001E46F0001E451E6EC0AF0000152
:10124800E45130EC0CF00001DF6F8CEC0DF0000184
:10125800E46F0001E451E6EC0AF00001E45130ECDF
:101268000CF00001E06F8CEC0DF00001E46F000160
:10127800E451E6EC0AF00001E45130EC0CF0000116
:10128800E16F8CEC0DF00001E46F0001E451E6EC35
:101298000AF00001E45130EC0CF00001E26F0001AB
:1012A800DD510A0DF3500001DE25396E0001DF51D2
:1012B8000A0DF3500001E0253D6E0001E1510A0DD1
:1012C800F3500001E225416E010E1E6EF40E1D6EF4
:1012D800ABEC0DF0010E69EC0CF0120020EE8AF078
:1012E80010EEC7F0140EDBCFE3FFE806FCE2080EB1
:1012F800806E800E69EC0CF0000E0001E16F130E99
:101308000001E16501D013D00001E151010DC70EC4
:10131800F324D96E000EF420DA6EDF500001DC6F82
:101328000001DC51E6EC0AF00001E12BE8D7C00E21
:1013380069EC0CF08CEC0DF00001E26F0001E25159
:10134800E6EC0AF00001E25130EC0CF00001DD6F30
:101358008CEC0DF00001E26F0001E251E6EC0AF0BE
:101368000001E25130EC0CF00001DE6F8CEC0DF066
:101378000001E26F0001E251E6EC0AF00001E251DF
:1013880030EC0CF00001DF6F8CEC0DF00001E26F27
:101398000001E251E6EC0AF00001E25130EC0CF0F9
:1013A8000001E06F0001DD510A0DF3500001DE2558
:1013B8003C6E0001DF510A0DF3500001E025406E3C
:1013C800010E1E6EF40E1D6EABEC0DF0010E69ECF5
:1013D8000CF0120020EE75F010EEC7F0140EDBCF03
:1013E800E3FFE806FCE2040E806E800E69EC0CF068
:1013F800000E0001E16F130E0001E16501D013D06A
:101408000001E151010DC70EF324D96E000EF4203E
:10141800DA6EDF500001DC6F0001DC51E6EC0AF007
:101428000001E12BE8D7C00E69EC0CF08CEC0DF054
:101438000001E26F0001E251E6EC0AF00001E2511E
:1014480030EC0CF00001DD6F8CEC0DF00001E26F68
:101458000001E251E6EC0AF00001E25130EC0CF038
:101468000001DE6F8CEC0DF00001E26F0001E2512B
:10147800E6EC0AF00001E25130EC0CF00001DF6FFD
:101488008CEC0DF00001E26F0001E251E6EC0AF08D
:101498000001E25130EC0CF00001E06F0001DD5179
:1014A8000A0DF3500001DE253B6E0001DF510A0DE5
:1014B800F3500001E0253F6E010E1E6EF40E1D6E06
:1014C800ABEC0DF0010E69EC0CF0120020EE60F0B0
:1014D80010EEC7F0140EDBCFE3FFE806FCE2020EC5
:1014E800806E800E69EC0CF0000E0001E16F130EA7
:1014F8000001E16501D013D00001E151010DC70ED3
:10150800F324D96E000EF420DA6EDF500001DC6F90
:101518000001DC51E6EC0AF00001E12BE8D7C00E2F
:1015280069EC0CF08CEC0DF00001E26F0001E25167
:10153800E6EC0AF00001E25130EC0CF00001DD6F3E
:101548008CEC0DF00001E26F0001E251E6EC0AF0CC
:101558000001E25130EC0CF00001DE6F8CEC0DF074
:101568000001E26F0001E251E6EC0AF00001E251ED
:1015780030EC0CF00001DF6F8CEC0DF00001E26F35
:101588000001E251E6EC0AF00001E25130EC0CF007
:101598000001E06F0001DD510A0DF3500001DE2566
:1015A8003A6E0001DF510A0DF3500001E0253E6E4E
:1015B800010E1E6EF40E1D6EABEC0DF0010E69EC03
:1015C8000CF012001F6E838C3F0E1E6E550EE82E17
:1015D800FED71E2EFCD700F01FC020F020380F0BBE
:1015E800206E20500F0B836E7D0E1E6EAC0EE82E03
:1015F800FED71E2EFCD7838C7D0E1E6EAC0EE82EF9
:10160800FED71E2EFCD7C5EC0DF07D0E1E6EAC0E5F
:10161800E82EFED71E2EFCD71FC020F020500F0B3F
:10162800836E7D0E1E6EAC0EE82EFED71E2EFCD7E6
:10163800838C9C0E1E6ED70EE82EFED71E2EFCD76E
:1016480000F0C5EC0DF09C0E1E6ED70EE82EFED7EE
:101658001E2EFCD700F01200036E838C3F0E026E24
:10166800550EE82EFED7022EFCD700F003C004F07A
:1016780004380F0B046E04500F0B836E7D0E026E40
:10168800AC0EE82EFED7022EFCD7838C7D0E026EA0
:10169800AC0EE82EFED7022EFCD7D6EC0DF07D0E50
:1016A800026EAC0EE82EFED7022EFCD703C004F063
:1016B80004500F0B836E7D0E026EAC0EE82EFED723
:1016C800022EFCD7838C9C0E026ED70EE82EFED716
:1016D800022EFCD700F0D6EC0DF09C0E026ED70E51
:1016E800E82EFED7022EFCD700F01200000E066E80
:1016F80004AE06D0036C041ED8B0042A010E066E90
:1017080002AE06D0016C021ED8B0022A010E061ADB
:10171800000E086E000E076E03500410D8B41CD0DB
:10172800010E056E04D0D89003360436052A04AE9F
:10173800FAD7D890073608360350015C045002588F
:10174800D8A005D00350015E0450025A0780D890F3
:1017580004320332052EEDD70650D8B404D0076CF6
:10176800081ED8B0082A07C001F008C002F012000D
:10177800016E17D0300E13D0310E11D0320E0FD0AB
:10178800330E0DD0340E0BD0350E09D0360E07D0DF
:10179800370E05D0380E03D0390E01D03F0E026E39
:1017A80020D00150000AD8B4E5D7010AD8B4E4D74C
:1017B800030AD8B4E3D7010AD8B4E2D7070AD8B4E1
:1017C800E1D7010AD8B4E0D7030AD8B4DFD7010AB1
:1017D800D8B4DED70F0AD8B4DDD7010AD8B4DCD71D
:1017E800DDD702501200000E956E000E836E8398AE
:1017F800839C839A000E236E000E226E23BE06D0B1
:1018080023500FE1640E225CD8B00BD09C0E216EE1
:10181800D70EE82EFED7212EFCD700F0224A232A25
:10182800EDD7330E69EC0CF0320E69EC0CF0280E93
:1018380069EC0CF00E0E69EC0CF0060E69EC0CF07D
:10184800010E69EC0CF09C0E216ED70EE82EFED727
:10185800212EFCD700F012001D6E15D0010E11D0FC
:10186800020E0FD0030E0DD0040E0BD0050E09D0BA
:10187800060E07D0070E05D0080E03D0090E01D0BA
:10188800000E1E6E20D01D50300AD8B4F9D7010AB8
:10189800D8B4E4D7030AD8B4E3D7010AD8B4E2D756
:1018A800070AD8B4E1D7010AD8B4E0D7030AD8B4F4
:1018B800DFD7010AD8B4DED70F0AD8B4DDD7010ABA
:1018C800D8B4DCD7DDD71E5012001F6E839C3F0EA4
:1018D8001E6E550EE82EFED71E2EFCD700F01FC038
:1018E80020F020380F0B206E20500F0B836E7D0EDA
:1018F8001E6EAC0EE82EFED71E2EFCD7C5EC0DF0E2
:101908007D0E1E6EAC0EE82EFED71E2EFCD71FC015
:1019180020F020500F0B836E7D0E1E6EAC0EE82E4D
:10192800FED71E2EFCD7C5EC0DF07D0E1E6EAC0E3C
:10193800E82EFED71E2EFCD71200036E839C3F0EA6
:10194800026E550EE82EFED7022EFCD700F003C01B
:1019580004F004380F0B046E04500F0B836E7D0ED9
:10196800026EAC0EE82EFED7022EFCD7D6EC0DF098
:101978007D0E026EAC0EE82EFED7022EFCD703C0F9
:1019880004F004500F0B836E7D0E026EAC0EE82E31
:10199800FED7022EFCD7D6EC0DF07D0E026EAC0EF3
:1019A800E82EFED7022EFCD712000F0EC16E070ECE
:1019B800B46EF7EC0BF0000E926E65EC0DF0D5EC02
:1019C80008F06AEC0AF0EEEC09F072EC09F0E7ECCA
:1019D8000DF03A503918D8A406D03E503D18D8A476
:1019E80002D0030E15D03B503918D8A406D03F506A
:1019F8003D18D8A402D0050E0BD03C503918D8A4F5
:101A080006D040503D18D8A402D0090E01D0000ECF
:101A1800806EDFD7760EF66E1A0EF76E000EF86E31
:101A280000EE60F010EE54F00900F5CFEEFFE5503F
:101A3800E150FAE1EA0EF66E1B0EF76E000EF86E34
:101A480000EE24F010EE15F00900F5CFEEFFE5509A
:101A5800E150FAE100EE39F0090EEE6AE806FDE120
:101A680042904292000EF86E0001D9EF0CF05375C7
:101A7800626A65637420412054696D652068686DE9
:101A88006D3A005375626A65637420422054696D2B
:101A9800652068686D6D3A005375626A65637420E5
:101AA800432054696D652068686D6D3A005365740C
:101AB8002074696D652068686D6D73733A20202005
:101AC800200020EE24F010EEB4F0140EDBCFE3FF7C
:101AD800E806FCE2800E69EC0CF0000E0001CA6F0B
:101AE800130E0001CA6501D012000001CA51010D90
:101AF800B40EF324D96E000EF420DA6EDF50000124
:101B0800C96F0001C951E6EC0AF00001CA2BE8D7F9
:101B18001B0EF66E100EF76E20EEB4F0110E0900D3
:101B2800F5CFDEFFE806FBE281AAFED781500F0B56
:101B38000001C66F81BAFED70001C651010DB40E6F
:101B4800F324D96E000EF420DA6EDF5012001D5017
:101B58001E10D8B41200000E216E000E206E0AD09E
:101B6800100E1F6E940EE82EFED71F2EFCD700D045
:101B7800204A212A1D50205C1E502158D8B012003E
:101B8800EFD783887D0E1D6EAC0EE82EFED71D2E76
:101B9800FCD783987D0E1D6EAC0EE82EFED71D2E49
:101BA800FCD7120083887D0E016EAC0EE82EFED79E
:101BB800012EFCD783987D0E016EAC0EE82EFED761
:101BC800012EFCD71200D08EF28E070ED56E840E31
:101BD800F16E480ED76EE50ED66ED58EF28AF29467
:101BE80012004554542056657273696F6E20312E69
:071BF8003120202020200015
:020000040020DA
:08000000FFFFFFFFFFFFFFFF00
:020000040030CA
:0E00000000051F1FFF8385FF0FC00FE00F409C
:00000001FF
