:041000000BEF08F0FA
:101008004282FACF09F0FBCF0AF017ED08F061EF42
:101018000DF00031323346343536453738394441DE
:101028003042432000000600E9CF0BF0EACF0CF075
:10103800E1CF0DF0E2CF0EF0D9CF0FF0DACF10F0FC
:10104800F3CF11F0F4CF12F0F6CF13F0F7CF14F07E
:10105800F8CF15F0F5CF16F0F2A485D04128416EEF
:101068003B0E416410D0000E416E3D283D6E3B0E94
:101078003D6409D0000E3D6E3928396E170E39646B
:1010880002D0000E396E39C001F0026A000E046EFB
:101098000A0E036E02EC0CF001501A6E1A500A0D7B
:1010A800F35000083924176E3DC001F0026A000EA3
:1010B800046E0A0E036E02EC0CF001501B6E1B50FE
:1010C8000A0DF35000083D24186E41C001F0026A71
:1010D800000E046E0A0E036E02EC0CF001501C6E3A
:1010E8001C500A0DF35000084124196E800E29EC9B
:1010F8000DF0540EB8EC0BF0690EB8EC0BF06D0E59
:10110800B8EC0BF0650EB8EC0BF0200EB8EC0BF059
:101118003D0EB8EC0BF0200EB8EC0BF01A5044EC76
:101128000CF0B8EC0BF0175044EC0CF0B8EC0BF0EA
:101138003A0EB8EC0BF01B5044EC0CF0B8EC0BF08A
:10114800185044EC0CF0B8EC0BF03A0EB8EC0BF07D
:101158001C5044EC0CF0B8EC0BF0195044EC0CF0BB
:10116800B8EC0BF0F29416C0F5FF15C0F8FF14C0E8
:10117800F7FF13C0F6FF12C0F4FF11C0F3FF10C051
:10118800DAFF0FC0D9FF0EC0E2FF0DC0E1FF0CC0AF
:10119800EAFF0BC0E9FF0AC0FBFF09C0FAFF429251
:1011A800110020EE9FF010EEC7F0140EDBCFE3FF26
:1011B800E806FCE2800EF1EC0CF0000E0001E36F93
:1011C800130E0001E36501D013D00001E351010DB6
:1011D800C70EF324D96E000EF420DA6EDF5000013A
:1011E800DC6F0001DC516EEC0BF00001E32BE8D75B
:1011F800C00EF1EC0CF0DFEC0DF00001E46F000123
:10120800E4516EEC0BF00001E451B8EC0CF0000175
:10121800DD6FDFEC0DF00001E46F0001E4516EECCE
:101228000BF00001E451B8EC0CF00001DE6FDFECCC
:101238000DF00001E46F0001E4516EEC0BF00001C9
:10124800E451B8EC0CF00001DF6FDFEC0DF00001A9
:10125800E46F0001E4516EEC0BF00001E451B8ECCE
:101268000CF00001E06FDFEC0DF00001E46F00010D
:10127800E4516EEC0BF00001E451B8EC0CF0000105
:10128800E16FDFEC0DF00001E46F0001E4516EEC5A
:101298000BF00001E451B8EC0CF00001E26F000122
:1012A800DD510A0DF3500001DE25396E0001DF51D2
:1012B8000A0DF3500001E0253D6E0001E1510A0DD1
:1012C800F3500001E225416E010E1E6EF40E1D6EF4
:1012D800FEEC0DF0010EF1EC0CF012000F0EC16ED9
:1012E800070EB46E7FEC0CF0000E926E000E00013B
:1012F800E66F000EE56F000E0001E86F000EE76F65
:10130800000E0001EA6F000EE96FB8EC0DF0D5ECA5
:1013180008F0F2EC0AF076EC0AF0FAEC09F03AEC94
:101328000EF032D03A503918D8A40CD03E503D189F
:10133800D8A408D00001E5510001E611D8A402D0D4
:10134800030E21D03B503918D8A40CD03F503D187B
:10135800D8A408D00001E7510001E811D8A402D0B0
:10136800050E11D03C503918D8A40CD040503D1867
:10137800D8A408D00001E9510001EA11D8A402D08C
:10138800090E01D0000E806E80AA2DD0CBD73A501E
:101398003918D8A40AD03E503D18D8A406D0000E5B
:1013A8000001E66F010EE56F1ED03B503918D8A436
:1013B8000AD03F503D18D8A406D0000E0001E86FAF
:1013C800010EE76F10D03C503918D8A40AD040500D
:1013D8003D18D8A406D0000E0001EA6F010EE96F8F
:1013E80002D0000E806E80BACFD7D1D720EE8AF017
:1013F80010EEC7F0140EDBCFE3FFE806FCE2080EA0
:10140800806E800EF1EC0CF0000E0001E16F130EFF
:101418000001E16501D013D00001E151010DC70EB3
:10142800F324D96E000EF420DA6EDF500001DC6F71
:101438000001DC516EEC0BF00001E12BE8D7C00E87
:10144800F1EC0CF0DFEC0DF00001E26F0001E2516D
:101458006EEC0BF00001E251B8EC0CF00001DD6F0E
:10146800DFEC0DF00001E26F0001E2516EEC0BF0D1
:101478000001E251B8EC0CF00001DE6FDFEC0DF07A
:101488000001E26F0001E2516EEC0BF00001E25145
:10149800B8EC0CF00001DF6FDFEC0DF00001E26F3B
:1014A8000001E2516EEC0BF00001E251B8EC0CF0D7
:1014B8000001E06F0001DD510A0DF3500001DE2547
:1014C8003C6E0001DF510A0DF3500001E025406E2B
:1014D800010E1E6EF40E1D6EFEEC0DF0010EF1EC09
:1014E8000CF0120020EE75F010EEC7F0140EDBCFF2
:1014F800E3FFE806FCE2040E806E800EF1EC0CF0CF
:10150800000E0001E16F130E0001E16501D013D058
:101518000001E151010DC70EF324D96E000EF4202D
:10152800DA6EDF500001DC6F0001DC516EEC0BF06D
:101538000001E12BE8D7C00EF1EC0CF0DFEC0DF068
:101548000001E26F0001E2516EEC0BF00001E25184
:10155800B8EC0CF00001DD6FDFEC0DF00001E26F7C
:101568000001E2516EEC0BF00001E251B8EC0CF016
:101578000001DE6FDFEC0DF00001E26F0001E251C7
:101588006EEC0BF00001E251B8EC0CF00001DF6FDB
:10159800DFEC0DF00001E26F0001E2516EEC0BF0A0
:1015A8000001E251B8EC0CF00001E06F0001DD51E0
:1015B8000A0DF3500001DE253B6E0001DF510A0DD4
:1015C800F3500001E0253F6E010E1E6EF40E1D6EF5
:1015D800FEEC0DF0010EF1EC0CF0120020EE60F0C4
:1015E80010EEC7F0140EDBCFE3FFE806FCE2020EB4
:1015F800806E800EF1EC0CF0000E0001E16F130E0E
:101608000001E16501D013D00001E151010DC70EC1
:10161800F324D96E000EF420DA6EDF500001DC6F7F
:101628000001DC516EEC0BF00001E12BE8D7C00E95
:10163800F1EC0CF0DFEC0DF00001E26F0001E2517B
:101648006EEC0BF00001E251B8EC0CF00001DD6F1C
:10165800DFEC0DF00001E26F0001E2516EEC0BF0DF
:101668000001E251B8EC0CF00001DE6FDFEC0DF088
:101678000001E26F0001E2516EEC0BF00001E25153
:10168800B8EC0CF00001DF6FDFEC0DF00001E26F49
:101698000001E2516EEC0BF00001E251B8EC0CF0E5
:1016A8000001E06F0001DD510A0DF3500001DE2555
:1016B8003A6E0001DF510A0DF3500001E0253E6E3D
:1016C800010E1E6EF40E1D6EFEEC0DF0010EF1EC17
:1016D8000CF012001F6E838C3F0E1E6E550EE82E06
:1016E800FED71E2EFCD700F01FC020F020380F0BAD
:1016F800206E20500F0B836E7D0E1E6EAC0EE82EF2
:10170800FED71E2EFCD7838C7D0E1E6EAC0EE82EE7
:10171800FED71E2EFCD718EC0EF07D0E1E6EAC0EFA
:10172800E82EFED71E2EFCD71FC020F020500F0B2E
:10173800836E7D0E1E6EAC0EE82EFED71E2EFCD7D5
:10174800838C9C0E1E6ED70EE82EFED71E2EFCD75D
:1017580000F018EC0EF09C0E1E6ED70EE82EFED789
:101768001E2EFCD700F01200036E838C3F0E026E13
:10177800550EE82EFED7022EFCD700F003C004F069
:1017880004380F0B046E04500F0B836E7D0E026E2F
:10179800AC0EE82EFED7022EFCD7838C7D0E026E8F
:1017A800AC0EE82EFED7022EFCD729EC0EF07D0EEB
:1017B800026EAC0EE82EFED7022EFCD703C004F052
:1017C80004500F0B836E7D0E026EAC0EE82EFED712
:1017D800022EFCD7838C9C0E026ED70EE82EFED705
:1017E800022EFCD700F029EC0EF09C0E026ED70EEC
:1017F800E82EFED7022EFCD700F01200000E066E6F
:1018080004AE06D0036C041ED8B0042A010E066E7E
:1018180002AE06D0016C021ED8B0022A010E061ACA
:10182800000E086E000E076E03500410D8B41CD0CA
:10183800010E056E04D0D89003360436052A04AE8E
:10184800FAD7D890073608360350015C045002587E
:10185800D8A005D00350015E0450025A0780D890E2
:1018680004320332052EEDD70650D8B404D0076CE5
:10187800081ED8B0082A07C001F008C002F01200FC
:10188800016E17D0300E13D0310E11D0320E0FD09A
:10189800330E0DD0340E0BD0350E09D0360E07D0CE
:1018A800370E05D0380E03D0390E01D03F0E026E28
:1018B80020D00150000AD8B4E5D7010AD8B4E4D73B
:1018C800030AD8B4E3D7010AD8B4E2D7070AD8B4D0
:1018D800E1D7010AD8B4E0D7030AD8B4DFD7010AA0
:1018E800D8B4DED70F0AD8B4DDD7010AD8B4DCD70C
:1018F800DDD702501200000E956E000E836E83989D
:10190800839C839A000E236E000E226E23BE06D09F
:1019180023500FE1640E225CD8B00BD09C0E216ED0
:10192800D70EE82EFED7212EFCD700F0224A232A14
:10193800EDD7330EF1EC0CF0320EF1EC0CF0280E72
:10194800F1EC0CF00E0EF1EC0CF0060EF1EC0CF0D4
:10195800010EF1EC0CF09C0E216ED70EE82EFED78E
:10196800212EFCD700F012001D6E15D0010E11D0EB
:10197800020E0FD0030E0DD0040E0BD0050E09D0A9
:10198800060E07D0070E05D0080E03D0090E01D0A9
:10199800000E1E6E20D01D50300AD8B4F9D7010AA7
:1019A800D8B4E4D7030AD8B4E3D7010AD8B4E2D745
:1019B800070AD8B4E1D7010AD8B4E0D7030AD8B4E3
:1019C800DFD7010AD8B4DED70F0AD8B4DDD7010AA9
:1019D800D8B4DCD7DDD71E5012001F6E839C3F0E93
:1019E8001E6E550EE82EFED71E2EFCD700F01FC027
:1019F80020F020380F0B206E20500F0B836E7D0EC9
:101A08001E6EAC0EE82EFED71E2EFCD718EC0EF07C
:101A18007D0E1E6EAC0EE82EFED71E2EFCD71FC004
:101A280020F020500F0B836E7D0E1E6EAC0EE82E3C
:101A3800FED71E2EFCD718EC0EF07D0E1E6EAC0ED7
:101A4800E82EFED71E2EFCD71200036E839C3F0E95
:101A5800026E550EE82EFED7022EFCD700F003C00A
:101A680004F004380F0B046E04500F0B836E7D0EC8
:101A7800026EAC0EE82EFED7022EFCD729EC0EF033
:101A88007D0E026EAC0EE82EFED7022EFCD703C0E8
:101A980004F004500F0B836E7D0E026EAC0EE82E20
:101AA800FED7022EFCD729EC0EF07D0E026EAC0E8E
:101AB800E82EFED7022EFCD712001C0EF66E1B0E67
:101AC800F76E000EF86E00EE60F010EE54F00900AC
:101AD800F5CFEEFFE550E150FAE1900EF66E1C0EE0
:101AE800F76E000EF86E00EE24F010EE15F0090007
:101AF800F5CFEEFFE550E150FAE100EE39F0090EBE
:101B0800EE6AE806FDE142904292000EF86E00018E
:101B180072EF09F05375626A656374204120546955
:101B28006D652068686D6D3A005375626A65637407
:101B380020422054696D652068686D6D3A005375C0
:101B4800626A65637420432054696D652068686D16
:101B58006D3A005365742074696D652068686D6D11
:101B680073733A202020200020EE24F010EEB4F009
:101B7800140EDBCFE3FFE806FCE2800EF1EC0CF07C
:101B8800000E0001CA6F130E0001CA6501D01200D1
:101B98000001CA51010DB40EF324D96E000EF420D1
:101BA800DA6EDF500001C96F0001C9516EEC0BF00D
:101BB8000001CA2BE8D71B0EF66E100EF76E20EE4A
:101BC800B4F0110E0900F5CFDEFFE806FBE281AAAA
:101BD800FED781500F0B0001C66F81BAFED70001F6
:101BE800C651010DB40EF324D96E000EF420DA6E3E
:101BF800DF5012001D501E10D8B41200000E216EC6
:101C0800000E206E0AD0100E1F6E940EE82EFED71E
:101C18001F2EFCD700D0204A212A1D50205C1E50C0
:101C28002158D8B01200EFD783887D0E1D6EAC0EF8
:101C3800E82EFED71D2EFCD783987D0E1D6EAC0EA8
:101C4800E82EFED71D2EFCD7120083887D0E016E6C
:101C5800AC0EE82EFED7012EFCD783987D0E016EC0
:101C6800AC0EE82EFED7012EFCD71200D08EF28ED5
:101C7800070ED56E840EF16E480ED76EE50ED66E41
:101C8800D58EF28AF2941200455454205665727328
:0D1C9800696F6E20312E32202020202000A8
:020000040020DA
:08000000FFFFFFFFFFFFFFFF00
:020000040030CA
:0E00000000051F1FFF8385FF0FC00FE00F409C
:00000001FF
